{
	"contracts/DrawBox.sol": {
		"LotterySystem": {
			"abi": [
				{
					"inputs": [],
					"stateMutability": "nonpayable",
					"type": "constructor"
				},
				{
					"inputs": [],
					"name": "AlreadyClaimed",
					"type": "error"
				},
				{
					"inputs": [],
					"name": "InsufficientFunds",
					"type": "error"
				},
				{
					"inputs": [],
					"name": "InvalidWinner",
					"type": "error"
				},
				{
					"inputs": [],
					"name": "NoTickets",
					"type": "error"
				},
				{
					"inputs": [],
					"name": "NotAuthorized",
					"type": "error"
				},
				{
					"inputs": [],
					"name": "WinnerAlreadyExists",
					"type": "error"
				},
				{
					"inputs": [],
					"name": "WinnerNotChosen",
					"type": "error"
				},
				{
					"anonymous": false,
					"inputs": [
						{
							"indexed": true,
							"internalType": "uint256",
							"name": "lotteryId",
							"type": "uint256"
						},
						{
							"indexed": true,
							"internalType": "address",
							"name": "authority",
							"type": "address"
						},
						{
							"indexed": false,
							"internalType": "uint256",
							"name": "ticketPrice",
							"type": "uint256"
						}
					],
					"name": "LotteryCreated",
					"type": "event"
				},
				{
					"anonymous": false,
					"inputs": [
						{
							"indexed": true,
							"internalType": "uint256",
							"name": "lotteryId",
							"type": "uint256"
						},
						{
							"indexed": true,
							"internalType": "uint256",
							"name": "ticketId",
							"type": "uint256"
						},
						{
							"indexed": true,
							"internalType": "address",
							"name": "winner",
							"type": "address"
						},
						{
							"indexed": false,
							"internalType": "uint256",
							"name": "amount",
							"type": "uint256"
						}
					],
					"name": "PrizeClaimed",
					"type": "event"
				},
				{
					"anonymous": false,
					"inputs": [
						{
							"indexed": true,
							"internalType": "uint256",
							"name": "lotteryId",
							"type": "uint256"
						},
						{
							"indexed": true,
							"internalType": "uint256",
							"name": "ticketId",
							"type": "uint256"
						},
						{
							"indexed": true,
							"internalType": "address",
							"name": "buyer",
							"type": "address"
						}
					],
					"name": "TicketPurchased",
					"type": "event"
				},
				{
					"anonymous": false,
					"inputs": [
						{
							"indexed": true,
							"internalType": "uint256",
							"name": "lotteryId",
							"type": "uint256"
						},
						{
							"indexed": true,
							"internalType": "uint256",
							"name": "ticketId",
							"type": "uint256"
						}
					],
					"name": "WinnerSelected",
					"type": "event"
				},
				{
					"inputs": [
						{
							"internalType": "uint256",
							"name": "lotteryId",
							"type": "uint256"
						}
					],
					"name": "buyTicket",
					"outputs": [],
					"stateMutability": "payable",
					"type": "function"
				},
				{
					"inputs": [
						{
							"internalType": "uint256",
							"name": "lotteryId",
							"type": "uint256"
						},
						{
							"internalType": "uint256",
							"name": "ticketId",
							"type": "uint256"
						}
					],
					"name": "claimPrize",
					"outputs": [],
					"stateMutability": "nonpayable",
					"type": "function"
				},
				{
					"inputs": [
						{
							"internalType": "uint256",
							"name": "ticketPrice",
							"type": "uint256"
						}
					],
					"name": "createLottery",
					"outputs": [],
					"stateMutability": "nonpayable",
					"type": "function"
				},
				{
					"inputs": [
						{
							"internalType": "uint256",
							"name": "lotteryId",
							"type": "uint256"
						}
					],
					"name": "getLotteryInfo",
					"outputs": [
						{
							"internalType": "uint256",
							"name": "id",
							"type": "uint256"
						},
						{
							"internalType": "address",
							"name": "authority",
							"type": "address"
						},
						{
							"internalType": "uint256",
							"name": "ticketPrice",
							"type": "uint256"
						},
						{
							"internalType": "uint256",
							"name": "lastTicketId",
							"type": "uint256"
						},
						{
							"internalType": "uint256",
							"name": "winnerId",
							"type": "uint256"
						},
						{
							"internalType": "bool",
							"name": "winnerChosen",
							"type": "bool"
						},
						{
							"internalType": "bool",
							"name": "claimed",
							"type": "bool"
						},
						{
							"internalType": "uint256",
							"name": "totalPrize",
							"type": "uint256"
						}
					],
					"stateMutability": "view",
					"type": "function"
				},
				{
					"inputs": [
						{
							"internalType": "uint256",
							"name": "lotteryId",
							"type": "uint256"
						},
						{
							"internalType": "uint256",
							"name": "ticketId",
							"type": "uint256"
						}
					],
					"name": "getTicketInfo",
					"outputs": [
						{
							"internalType": "uint256",
							"name": "id",
							"type": "uint256"
						},
						{
							"internalType": "uint256",
							"name": "lottery",
							"type": "uint256"
						},
						{
							"internalType": "address",
							"name": "_owner",
							"type": "address"
						}
					],
					"stateMutability": "view",
					"type": "function"
				},
				{
					"inputs": [
						{
							"internalType": "uint256",
							"name": "",
							"type": "uint256"
						}
					],
					"name": "lotteries",
					"outputs": [
						{
							"internalType": "uint256",
							"name": "id",
							"type": "uint256"
						},
						{
							"internalType": "address",
							"name": "authority",
							"type": "address"
						},
						{
							"internalType": "uint256",
							"name": "ticketPrice",
							"type": "uint256"
						},
						{
							"internalType": "uint256",
							"name": "lastTicketId",
							"type": "uint256"
						},
						{
							"internalType": "uint256",
							"name": "winnerId",
							"type": "uint256"
						},
						{
							"internalType": "bool",
							"name": "winnerChosen",
							"type": "bool"
						},
						{
							"internalType": "bool",
							"name": "claimed",
							"type": "bool"
						},
						{
							"internalType": "uint256",
							"name": "totalPrize",
							"type": "uint256"
						}
					],
					"stateMutability": "view",
					"type": "function"
				},
				{
					"inputs": [],
					"name": "lotteryIdCounter",
					"outputs": [
						{
							"internalType": "uint256",
							"name": "",
							"type": "uint256"
						}
					],
					"stateMutability": "view",
					"type": "function"
				},
				{
					"inputs": [],
					"name": "owner",
					"outputs": [
						{
							"internalType": "address",
							"name": "",
							"type": "address"
						}
					],
					"stateMutability": "view",
					"type": "function"
				},
				{
					"inputs": [
						{
							"internalType": "uint256",
							"name": "lotteryId",
							"type": "uint256"
						}
					],
					"name": "pickWinner",
					"outputs": [],
					"stateMutability": "nonpayable",
					"type": "function"
				},
				{
					"inputs": [
						{
							"internalType": "uint256",
							"name": "",
							"type": "uint256"
						},
						{
							"internalType": "uint256",
							"name": "",
							"type": "uint256"
						}
					],
					"name": "tickets",
					"outputs": [
						{
							"internalType": "uint256",
							"name": "id",
							"type": "uint256"
						},
						{
							"internalType": "uint256",
							"name": "lotteryId",
							"type": "uint256"
						},
						{
							"internalType": "address",
							"name": "owner",
							"type": "address"
						}
					],
					"stateMutability": "view",
					"type": "function"
				}
			],
			"devdoc": {
				"details": "A lottery system where users can buy tickets and a winner is randomly selected",
				"kind": "dev",
				"methods": {
					"buyTicket(uint256)": {
						"details": "Buy a ticket for a specified lottery",
						"params": {
							"lotteryId": "ID of the lottery to buy a ticket for"
						}
					},
					"claimPrize(uint256,uint256)": {
						"details": "Claim the prize for a winning ticket",
						"params": {
							"lotteryId": "ID of the lottery",
							"ticketId": "ID of the winning ticket"
						}
					},
					"createLottery(uint256)": {
						"details": "Create a new lottery with specified ticket price",
						"params": {
							"ticketPrice": "Price per lottery ticket in wei"
						}
					},
					"getLotteryInfo(uint256)": {
						"details": "Get information about a specific lottery",
						"params": {
							"lotteryId": "ID of the lottery to get information for"
						}
					},
					"getTicketInfo(uint256,uint256)": {
						"details": "Get information about a specific ticket",
						"params": {
							"lotteryId": "ID of the lottery",
							"ticketId": "ID of the ticket"
						}
					},
					"pickWinner(uint256)": {
						"details": "Pick a winner for the lottery",
						"params": {
							"lotteryId": "ID of the lottery to pick a winner for"
						}
					}
				},
				"title": "Lottery",
				"version": 1
			},
			"evm": {
				"assembly": "    /* \"contracts/DrawBox.sol\":171:6622  contract LotterySystem {... */\n  mstore(0x40, 0x80)\n    /* \"contracts/DrawBox.sol\":1426:1505  constructor() {... */\n  callvalue\n  dup1\n  iszero\n  tag_1\n  jumpi\n  0x00\n  dup1\n  revert\ntag_1:\n  pop\n    /* \"contracts/DrawBox.sol\":1458:1468  msg.sender */\n  caller\n    /* \"contracts/DrawBox.sol\":1450:1455  owner */\n  0x00\n  dup1\n    /* \"contracts/DrawBox.sol\":1450:1468  owner = msg.sender */\n  0x0100\n  exp\n  dup2\n  sload\n  dup2\n  0xffffffffffffffffffffffffffffffffffffffff\n  mul\n  not\n  and\n  swap1\n  dup4\n  0xffffffffffffffffffffffffffffffffffffffff\n  and\n  mul\n  or\n  swap1\n  sstore\n  pop\n    /* \"contracts/DrawBox.sol\":1497:1498  0 */\n  0x00\n    /* \"contracts/DrawBox.sol\":1478:1494  lotteryIdCounter */\n  0x01\n    /* \"contracts/DrawBox.sol\":1478:1498  lotteryIdCounter = 0 */\n  dup2\n  swap1\n  sstore\n  pop\n    /* \"contracts/DrawBox.sol\":171:6622  contract LotterySystem {... */\n  dataSize(sub_0)\n  dup1\n  dataOffset(sub_0)\n  0x00\n  codecopy\n  0x00\n  return\nstop\n\nsub_0: assembly {\n        /* \"contracts/DrawBox.sol\":171:6622  contract LotterySystem {... */\n      mstore(0x40, 0x80)\n      jumpi(tag_1, lt(calldatasize, 0x04))\n      shr(0xe0, calldataload(0x00))\n      dup1\n      0x7b154140\n      gt\n      tag_12\n      jumpi\n      dup1\n      0x7b154140\n      eq\n      tag_7\n      jumpi\n      dup1\n      0x8da5cb5b\n      eq\n      tag_8\n      jumpi\n      dup1\n      0x8dd8c56d\n      eq\n      tag_9\n      jumpi\n      dup1\n      0xa374e43f\n      eq\n      tag_10\n      jumpi\n      dup1\n      0xf737d21d\n      eq\n      tag_11\n      jumpi\n      jump(tag_1)\n    tag_12:\n      dup1\n      0x1398e076\n      eq\n      tag_2\n      jumpi\n      dup1\n      0x25595ce5\n      eq\n      tag_3\n      jumpi\n      dup1\n      0x67dd74ca\n      eq\n      tag_4\n      jumpi\n      dup1\n      0x6b0d0329\n      eq\n      tag_5\n      jumpi\n      dup1\n      0x76b3c8a8\n      eq\n      tag_6\n      jumpi\n    tag_1:\n      0x00\n      dup1\n      revert\n        /* \"contracts/DrawBox.sol\":649:693  mapping(uint256 => Lottery) public lotteries */\n    tag_2:\n      callvalue\n      dup1\n      iszero\n      tag_13\n      jumpi\n      0x00\n      dup1\n      revert\n    tag_13:\n      pop\n      tag_14\n      0x04\n      dup1\n      calldatasize\n      sub\n      dup2\n      add\n      swap1\n      tag_15\n      swap2\n      swap1\n      tag_16\n      jump\t// in\n    tag_15:\n      tag_17\n      jump\t// in\n    tag_14:\n      mload(0x40)\n      tag_18\n      swap9\n      swap8\n      swap7\n      swap6\n      swap5\n      swap4\n      swap3\n      swap2\n      swap1\n      tag_19\n      jump\t// in\n    tag_18:\n      mload(0x40)\n      dup1\n      swap2\n      sub\n      swap1\n      return\n        /* \"contracts/DrawBox.sol\":249:280  uint256 public lotteryIdCounter */\n    tag_3:\n      callvalue\n      dup1\n      iszero\n      tag_20\n      jumpi\n      0x00\n      dup1\n      revert\n    tag_20:\n      pop\n      tag_21\n      tag_22\n      jump\t// in\n    tag_21:\n      mload(0x40)\n      tag_23\n      swap2\n      swap1\n      tag_24\n      jump\t// in\n    tag_23:\n      mload(0x40)\n      dup1\n      swap2\n      sub\n      swap1\n      return\n        /* \"contracts/DrawBox.sol\":2454:3271  function buyTicket(uint256 lotteryId) external payable {... */\n    tag_4:\n      tag_25\n      0x04\n      dup1\n      calldatasize\n      sub\n      dup2\n      add\n      swap1\n      tag_26\n      swap2\n      swap1\n      tag_16\n      jump\t// in\n    tag_26:\n      tag_27\n      jump\t// in\n    tag_25:\n      stop\n        /* \"contracts/DrawBox.sol\":6287:6620  function getTicketInfo(uint256 lotteryId, uint256 ticketId) external view returns (... */\n    tag_5:\n      callvalue\n      dup1\n      iszero\n      tag_28\n      jumpi\n      0x00\n      dup1\n      revert\n    tag_28:\n      pop\n      tag_29\n      0x04\n      dup1\n      calldatasize\n      sub\n      dup2\n      add\n      swap1\n      tag_30\n      swap2\n      swap1\n      tag_31\n      jump\t// in\n    tag_30:\n      tag_32\n      jump\t// in\n    tag_29:\n      mload(0x40)\n      tag_33\n      swap4\n      swap3\n      swap2\n      swap1\n      tag_34\n      jump\t// in\n    tag_33:\n      mload(0x40)\n      dup1\n      swap2\n      sub\n      swap1\n      return\n        /* \"contracts/DrawBox.sol\":5509:6127  function getLotteryInfo(uint256 lotteryId) external view returns (... */\n    tag_6:\n      callvalue\n      dup1\n      iszero\n      tag_35\n      jumpi\n      0x00\n      dup1\n      revert\n    tag_35:\n      pop\n      tag_36\n      0x04\n      dup1\n      calldatasize\n      sub\n      dup2\n      add\n      swap1\n      tag_37\n      swap2\n      swap1\n      tag_16\n      jump\t// in\n    tag_37:\n      tag_38\n      jump\t// in\n    tag_36:\n      mload(0x40)\n      tag_39\n      swap9\n      swap8\n      swap7\n      swap6\n      swap5\n      swap4\n      swap3\n      swap2\n      swap1\n      tag_19\n      jump\t// in\n    tag_39:\n      mload(0x40)\n      dup1\n      swap2\n      sub\n      swap1\n      return\n        /* \"contracts/DrawBox.sol\":4453:5365  function claimPrize(uint256 lotteryId, uint256 ticketId) external {... */\n    tag_7:\n      callvalue\n      dup1\n      iszero\n      tag_40\n      jumpi\n      0x00\n      dup1\n      revert\n    tag_40:\n      pop\n      tag_41\n      0x04\n      dup1\n      calldatasize\n      sub\n      dup2\n      add\n      swap1\n      tag_42\n      swap2\n      swap1\n      tag_31\n      jump\t// in\n    tag_42:\n      tag_43\n      jump\t// in\n    tag_41:\n      stop\n        /* \"contracts/DrawBox.sol\":223:243  address public owner */\n    tag_8:\n      callvalue\n      dup1\n      iszero\n      tag_44\n      jumpi\n      0x00\n      dup1\n      revert\n    tag_44:\n      pop\n      tag_45\n      tag_46\n      jump\t// in\n    tag_45:\n      mload(0x40)\n      tag_47\n      swap2\n      swap1\n      tag_48\n      jump\t// in\n    tag_47:\n      mload(0x40)\n      dup1\n      swap2\n      sub\n      swap1\n      return\n        /* \"contracts/DrawBox.sol\":1849:2317  function createLottery(uint256 ticketPrice) external {... */\n    tag_9:\n      callvalue\n      dup1\n      iszero\n      tag_49\n      jumpi\n      0x00\n      dup1\n      revert\n    tag_49:\n      pop\n      tag_50\n      0x04\n      dup1\n      calldatasize\n      sub\n      dup2\n      add\n      swap1\n      tag_51\n      swap2\n      swap1\n      tag_16\n      jump\t// in\n    tag_51:\n      tag_52\n      jump\t// in\n    tag_50:\n      stop\n        /* \"contracts/DrawBox.sol\":699:760  mapping(uint256 => mapping(uint256 => Ticket)) public tickets */\n    tag_10:\n      callvalue\n      dup1\n      iszero\n      tag_53\n      jumpi\n      0x00\n      dup1\n      revert\n    tag_53:\n      pop\n      tag_54\n      0x04\n      dup1\n      calldatasize\n      sub\n      dup2\n      add\n      swap1\n      tag_55\n      swap2\n      swap1\n      tag_31\n      jump\t// in\n    tag_55:\n      tag_56\n      jump\t// in\n    tag_54:\n      mload(0x40)\n      tag_57\n      swap4\n      swap3\n      swap2\n      swap1\n      tag_34\n      jump\t// in\n    tag_57:\n      mload(0x40)\n      dup1\n      swap2\n      sub\n      swap1\n      return\n        /* \"contracts/DrawBox.sol\":3402:4288  function pickWinner(uint256 lotteryId) external onlyLotteryAuthority(lotteryId) {... */\n    tag_11:\n      callvalue\n      dup1\n      iszero\n      tag_58\n      jumpi\n      0x00\n      dup1\n      revert\n    tag_58:\n      pop\n      tag_59\n      0x04\n      dup1\n      calldatasize\n      sub\n      dup2\n      add\n      swap1\n      tag_60\n      swap2\n      swap1\n      tag_16\n      jump\t// in\n    tag_60:\n      tag_61\n      jump\t// in\n    tag_59:\n      stop\n        /* \"contracts/DrawBox.sol\":649:693  mapping(uint256 => Lottery) public lotteries */\n    tag_17:\n      mstore(0x20, 0x02)\n      dup1\n      0x00\n      mstore\n      keccak256(0x00, 0x40)\n      0x00\n      swap2\n      pop\n      swap1\n      pop\n      dup1\n      0x00\n      add\n      sload\n      swap1\n      dup1\n      0x01\n      add\n      0x00\n      swap1\n      sload\n      swap1\n      0x0100\n      exp\n      swap1\n      div\n      0xffffffffffffffffffffffffffffffffffffffff\n      and\n      swap1\n      dup1\n      0x02\n      add\n      sload\n      swap1\n      dup1\n      0x03\n      add\n      sload\n      swap1\n      dup1\n      0x04\n      add\n      sload\n      swap1\n      dup1\n      0x05\n      add\n      0x00\n      swap1\n      sload\n      swap1\n      0x0100\n      exp\n      swap1\n      div\n      0xff\n      and\n      swap1\n      dup1\n      0x05\n      add\n      0x01\n      swap1\n      sload\n      swap1\n      0x0100\n      exp\n      swap1\n      div\n      0xff\n      and\n      swap1\n      dup1\n      0x06\n      add\n      sload\n      swap1\n      pop\n      dup9\n      jump\t// out\n        /* \"contracts/DrawBox.sol\":249:280  uint256 public lotteryIdCounter */\n    tag_22:\n      sload(0x01)\n      dup2\n      jump\t// out\n        /* \"contracts/DrawBox.sol\":2454:3271  function buyTicket(uint256 lotteryId) external payable {... */\n    tag_27:\n        /* \"contracts/DrawBox.sol\":2519:2542  Lottery storage lottery */\n      0x00\n        /* \"contracts/DrawBox.sol\":2545:2554  lotteries */\n      0x02\n        /* \"contracts/DrawBox.sol\":2545:2565  lotteries[lotteryId] */\n      0x00\n        /* \"contracts/DrawBox.sol\":2555:2564  lotteryId */\n      dup4\n        /* \"contracts/DrawBox.sol\":2545:2565  lotteries[lotteryId] */\n      dup2\n      mstore\n      0x20\n      add\n      swap1\n      dup2\n      mstore\n      0x20\n      add\n      0x00\n      keccak256\n        /* \"contracts/DrawBox.sol\":2519:2565  Lottery storage lottery = lotteries[lotteryId] */\n      swap1\n      pop\n        /* \"contracts/DrawBox.sol\":2616:2617  0 */\n      0x00\n        /* \"contracts/DrawBox.sol\":2587:2618  lottery.authority == address(0) */\n      0xffffffffffffffffffffffffffffffffffffffff\n      and\n        /* \"contracts/DrawBox.sol\":2587:2594  lottery */\n      dup2\n        /* \"contracts/DrawBox.sol\":2587:2604  lottery.authority */\n      0x01\n      add\n      0x00\n      swap1\n      sload\n      swap1\n      0x0100\n      exp\n      swap1\n      div\n      0xffffffffffffffffffffffffffffffffffffffff\n      and\n        /* \"contracts/DrawBox.sol\":2587:2618  lottery.authority == address(0) */\n      0xffffffffffffffffffffffffffffffffffffffff\n      and\n      sub\n        /* \"contracts/DrawBox.sol\":2584:2677  if(lottery.authority == address(0)) {... */\n      tag_63\n      jumpi\n        /* \"contracts/DrawBox.sol\":2634:2666  revert(\"Lottery does not exist\") */\n      mload(0x40)\n      0x08c379a000000000000000000000000000000000000000000000000000000000\n      dup2\n      mstore\n      0x04\n      add\n      tag_64\n      swap1\n      tag_65\n      jump\t// in\n    tag_64:\n      mload(0x40)\n      dup1\n      swap2\n      sub\n      swap1\n      revert\n        /* \"contracts/DrawBox.sol\":2584:2677  if(lottery.authority == address(0)) {... */\n    tag_63:\n        /* \"contracts/DrawBox.sol\":2698:2705  lottery */\n      dup1\n        /* \"contracts/DrawBox.sol\":2698:2718  lottery.winnerChosen */\n      0x05\n      add\n      0x00\n      swap1\n      sload\n      swap1\n      0x0100\n      exp\n      swap1\n      div\n      0xff\n      and\n        /* \"contracts/DrawBox.sol\":2695:2773  if(lottery.winnerChosen) {... */\n      iszero\n      tag_66\n      jumpi\n        /* \"contracts/DrawBox.sol\":2741:2762  WinnerAlreadyExists() */\n      mload(0x40)\n      0xd9b532e600000000000000000000000000000000000000000000000000000000\n      dup2\n      mstore\n      0x04\n      add\n      mload(0x40)\n      dup1\n      swap2\n      sub\n      swap1\n      revert\n        /* \"contracts/DrawBox.sol\":2695:2773  if(lottery.winnerChosen) {... */\n    tag_66:\n        /* \"contracts/DrawBox.sol\":2807:2814  lottery */\n      dup1\n        /* \"contracts/DrawBox.sol\":2807:2826  lottery.ticketPrice */\n      0x02\n      add\n      sload\n        /* \"contracts/DrawBox.sol\":2794:2803  msg.value */\n      callvalue\n        /* \"contracts/DrawBox.sol\":2794:2826  msg.value != lottery.ticketPrice */\n      eq\n        /* \"contracts/DrawBox.sol\":2791:2879  if(msg.value != lottery.ticketPrice) {... */\n      tag_67\n      jumpi\n        /* \"contracts/DrawBox.sol\":2849:2868  InsufficientFunds() */\n      mload(0x40)\n      0x356680b700000000000000000000000000000000000000000000000000000000\n      dup2\n      mstore\n      0x04\n      add\n      mload(0x40)\n      dup1\n      swap2\n      sub\n      swap1\n      revert\n        /* \"contracts/DrawBox.sol\":2791:2879  if(msg.value != lottery.ticketPrice) {... */\n    tag_67:\n        /* \"contracts/DrawBox.sol\":2897:2904  lottery */\n      dup1\n        /* \"contracts/DrawBox.sol\":2897:2917  lottery.lastTicketId */\n      0x03\n      add\n      0x00\n        /* \"contracts/DrawBox.sol\":2897:2919  lottery.lastTicketId++ */\n      dup2\n      sload\n      dup1\n      swap3\n      swap2\n      swap1\n      tag_68\n      swap1\n      tag_69\n      jump\t// in\n    tag_68:\n      swap2\n      swap1\n      pop\n      sstore\n      pop\n        /* \"contracts/DrawBox.sol\":2929:2945  uint256 ticketId */\n      0x00\n        /* \"contracts/DrawBox.sol\":2948:2955  lottery */\n      dup2\n        /* \"contracts/DrawBox.sol\":2948:2968  lottery.lastTicketId */\n      0x03\n      add\n      sload\n        /* \"contracts/DrawBox.sol\":2929:2968  uint256 ticketId = lottery.lastTicketId */\n      swap1\n      pop\n        /* \"contracts/DrawBox.sol\":2987:3008  Ticket storage ticket */\n      0x00\n        /* \"contracts/DrawBox.sol\":3011:3018  tickets */\n      0x03\n        /* \"contracts/DrawBox.sol\":3011:3029  tickets[lotteryId] */\n      0x00\n        /* \"contracts/DrawBox.sol\":3019:3028  lotteryId */\n      dup6\n        /* \"contracts/DrawBox.sol\":3011:3029  tickets[lotteryId] */\n      dup2\n      mstore\n      0x20\n      add\n      swap1\n      dup2\n      mstore\n      0x20\n      add\n      0x00\n      keccak256\n        /* \"contracts/DrawBox.sol\":3011:3039  tickets[lotteryId][ticketId] */\n      0x00\n        /* \"contracts/DrawBox.sol\":3030:3038  ticketId */\n      dup4\n        /* \"contracts/DrawBox.sol\":3011:3039  tickets[lotteryId][ticketId] */\n      dup2\n      mstore\n      0x20\n      add\n      swap1\n      dup2\n      mstore\n      0x20\n      add\n      0x00\n      keccak256\n        /* \"contracts/DrawBox.sol\":2987:3039  Ticket storage ticket = tickets[lotteryId][ticketId] */\n      swap1\n      pop\n        /* \"contracts/DrawBox.sol\":3061:3069  ticketId */\n      dup2\n        /* \"contracts/DrawBox.sol\":3049:3055  ticket */\n      dup2\n        /* \"contracts/DrawBox.sol\":3049:3058  ticket.id */\n      0x00\n      add\n        /* \"contracts/DrawBox.sol\":3049:3069  ticket.id = ticketId */\n      dup2\n      swap1\n      sstore\n      pop\n        /* \"contracts/DrawBox.sol\":3098:3107  lotteryId */\n      dup4\n        /* \"contracts/DrawBox.sol\":3079:3085  ticket */\n      dup2\n        /* \"contracts/DrawBox.sol\":3079:3095  ticket.lotteryId */\n      0x01\n      add\n        /* \"contracts/DrawBox.sol\":3079:3107  ticket.lotteryId = lotteryId */\n      dup2\n      swap1\n      sstore\n      pop\n        /* \"contracts/DrawBox.sol\":3132:3142  msg.sender */\n      caller\n        /* \"contracts/DrawBox.sol\":3117:3123  ticket */\n      dup2\n        /* \"contracts/DrawBox.sol\":3117:3129  ticket.owner */\n      0x02\n      add\n      0x00\n        /* \"contracts/DrawBox.sol\":3117:3142  ticket.owner = msg.sender */\n      0x0100\n      exp\n      dup2\n      sload\n      dup2\n      0xffffffffffffffffffffffffffffffffffffffff\n      mul\n      not\n      and\n      swap1\n      dup4\n      0xffffffffffffffffffffffffffffffffffffffff\n      and\n      mul\n      or\n      swap1\n      sstore\n      pop\n        /* \"contracts/DrawBox.sol\":3183:3192  msg.value */\n      callvalue\n        /* \"contracts/DrawBox.sol\":3161:3168  lottery */\n      dup4\n        /* \"contracts/DrawBox.sol\":3161:3179  lottery.totalPrize */\n      0x06\n      add\n      0x00\n        /* \"contracts/DrawBox.sol\":3161:3192  lottery.totalPrize += msg.value */\n      dup3\n      dup3\n      sload\n      tag_70\n      swap2\n      swap1\n      tag_71\n      jump\t// in\n    tag_70:\n      swap3\n      pop\n      pop\n      dup2\n      swap1\n      sstore\n      pop\n        /* \"contracts/DrawBox.sol\":3253:3263  msg.sender */\n      caller\n        /* \"contracts/DrawBox.sol\":3216:3264  TicketPurchased(lotteryId, ticketId, msg.sender) */\n      0xffffffffffffffffffffffffffffffffffffffff\n      and\n        /* \"contracts/DrawBox.sol\":3243:3251  ticketId */\n      dup3\n        /* \"contracts/DrawBox.sol\":3232:3241  lotteryId */\n      dup6\n        /* \"contracts/DrawBox.sol\":3216:3264  TicketPurchased(lotteryId, ticketId, msg.sender) */\n      0x94c5953e15f54d38b82a662bdd5739fc91af3a23d3ef7e67269dfaeee71a813c\n      mload(0x40)\n      mload(0x40)\n      dup1\n      swap2\n      sub\n      swap1\n      log4\n        /* \"contracts/DrawBox.sol\":2509:3271  {... */\n      pop\n      pop\n      pop\n        /* \"contracts/DrawBox.sol\":2454:3271  function buyTicket(uint256 lotteryId) external payable {... */\n      pop\n      jump\t// out\n        /* \"contracts/DrawBox.sol\":6287:6620  function getTicketInfo(uint256 lotteryId, uint256 ticketId) external view returns (... */\n    tag_32:\n        /* \"contracts/DrawBox.sol\":6379:6389  uint256 id */\n      0x00\n        /* \"contracts/DrawBox.sol\":6399:6414  uint256 lottery */\n      dup1\n        /* \"contracts/DrawBox.sol\":6424:6438  address _owner */\n      0x00\n        /* \"contracts/DrawBox.sol\":6455:6476  Ticket storage ticket */\n      dup1\n        /* \"contracts/DrawBox.sol\":6479:6486  tickets */\n      0x03\n        /* \"contracts/DrawBox.sol\":6479:6497  tickets[lotteryId] */\n      0x00\n        /* \"contracts/DrawBox.sol\":6487:6496  lotteryId */\n      dup8\n        /* \"contracts/DrawBox.sol\":6479:6497  tickets[lotteryId] */\n      dup2\n      mstore\n      0x20\n      add\n      swap1\n      dup2\n      mstore\n      0x20\n      add\n      0x00\n      keccak256\n        /* \"contracts/DrawBox.sol\":6479:6507  tickets[lotteryId][ticketId] */\n      0x00\n        /* \"contracts/DrawBox.sol\":6498:6506  ticketId */\n      dup7\n        /* \"contracts/DrawBox.sol\":6479:6507  tickets[lotteryId][ticketId] */\n      dup2\n      mstore\n      0x20\n      add\n      swap1\n      dup2\n      mstore\n      0x20\n      add\n      0x00\n      keccak256\n        /* \"contracts/DrawBox.sol\":6455:6507  Ticket storage ticket = tickets[lotteryId][ticketId] */\n      swap1\n      pop\n        /* \"contracts/DrawBox.sol\":6538:6544  ticket */\n      dup1\n        /* \"contracts/DrawBox.sol\":6538:6547  ticket.id */\n      0x00\n      add\n      sload\n        /* \"contracts/DrawBox.sol\":6561:6567  ticket */\n      dup2\n        /* \"contracts/DrawBox.sol\":6561:6577  ticket.lotteryId */\n      0x01\n      add\n      sload\n        /* \"contracts/DrawBox.sol\":6591:6597  ticket */\n      dup3\n        /* \"contracts/DrawBox.sol\":6591:6603  ticket.owner */\n      0x02\n      add\n      0x00\n      swap1\n      sload\n      swap1\n      0x0100\n      exp\n      swap1\n      div\n      0xffffffffffffffffffffffffffffffffffffffff\n      and\n        /* \"contracts/DrawBox.sol\":6517:6613  return (... */\n      swap4\n      pop\n      swap4\n      pop\n      swap4\n      pop\n      pop\n        /* \"contracts/DrawBox.sol\":6287:6620  function getTicketInfo(uint256 lotteryId, uint256 ticketId) external view returns (... */\n      swap3\n      pop\n      swap3\n      pop\n      swap3\n      jump\t// out\n        /* \"contracts/DrawBox.sol\":5509:6127  function getLotteryInfo(uint256 lotteryId) external view returns (... */\n    tag_38:\n        /* \"contracts/DrawBox.sol\":5584:5594  uint256 id */\n      0x00\n        /* \"contracts/DrawBox.sol\":5604:5621  address authority */\n      dup1\n        /* \"contracts/DrawBox.sol\":5631:5650  uint256 ticketPrice */\n      0x00\n        /* \"contracts/DrawBox.sol\":5660:5680  uint256 lastTicketId */\n      dup1\n        /* \"contracts/DrawBox.sol\":5690:5706  uint256 winnerId */\n      0x00\n        /* \"contracts/DrawBox.sol\":5716:5733  bool winnerChosen */\n      dup1\n        /* \"contracts/DrawBox.sol\":5743:5755  bool claimed */\n      0x00\n        /* \"contracts/DrawBox.sol\":5765:5783  uint256 totalPrize */\n      dup1\n        /* \"contracts/DrawBox.sol\":5800:5823  Lottery storage lottery */\n      0x00\n        /* \"contracts/DrawBox.sol\":5826:5835  lotteries */\n      0x02\n        /* \"contracts/DrawBox.sol\":5826:5846  lotteries[lotteryId] */\n      0x00\n        /* \"contracts/DrawBox.sol\":5836:5845  lotteryId */\n      dup12\n        /* \"contracts/DrawBox.sol\":5826:5846  lotteries[lotteryId] */\n      dup2\n      mstore\n      0x20\n      add\n      swap1\n      dup2\n      mstore\n      0x20\n      add\n      0x00\n      keccak256\n        /* \"contracts/DrawBox.sol\":5800:5846  Lottery storage lottery = lotteries[lotteryId] */\n      swap1\n      pop\n        /* \"contracts/DrawBox.sol\":5877:5884  lottery */\n      dup1\n        /* \"contracts/DrawBox.sol\":5877:5887  lottery.id */\n      0x00\n      add\n      sload\n        /* \"contracts/DrawBox.sol\":5901:5908  lottery */\n      dup2\n        /* \"contracts/DrawBox.sol\":5901:5918  lottery.authority */\n      0x01\n      add\n      0x00\n      swap1\n      sload\n      swap1\n      0x0100\n      exp\n      swap1\n      div\n      0xffffffffffffffffffffffffffffffffffffffff\n      and\n        /* \"contracts/DrawBox.sol\":5932:5939  lottery */\n      dup3\n        /* \"contracts/DrawBox.sol\":5932:5951  lottery.ticketPrice */\n      0x02\n      add\n      sload\n        /* \"contracts/DrawBox.sol\":5965:5972  lottery */\n      dup4\n        /* \"contracts/DrawBox.sol\":5965:5985  lottery.lastTicketId */\n      0x03\n      add\n      sload\n        /* \"contracts/DrawBox.sol\":5999:6006  lottery */\n      dup5\n        /* \"contracts/DrawBox.sol\":5999:6015  lottery.winnerId */\n      0x04\n      add\n      sload\n        /* \"contracts/DrawBox.sol\":6029:6036  lottery */\n      dup6\n        /* \"contracts/DrawBox.sol\":6029:6049  lottery.winnerChosen */\n      0x05\n      add\n      0x00\n      swap1\n      sload\n      swap1\n      0x0100\n      exp\n      swap1\n      div\n      0xff\n      and\n        /* \"contracts/DrawBox.sol\":6063:6070  lottery */\n      dup7\n        /* \"contracts/DrawBox.sol\":6063:6078  lottery.claimed */\n      0x05\n      add\n      0x01\n      swap1\n      sload\n      swap1\n      0x0100\n      exp\n      swap1\n      div\n      0xff\n      and\n        /* \"contracts/DrawBox.sol\":6092:6099  lottery */\n      dup8\n        /* \"contracts/DrawBox.sol\":6092:6110  lottery.totalPrize */\n      0x06\n      add\n      sload\n        /* \"contracts/DrawBox.sol\":5856:6120  return (... */\n      swap9\n      pop\n      swap9\n      pop\n      swap9\n      pop\n      swap9\n      pop\n      swap9\n      pop\n      swap9\n      pop\n      swap9\n      pop\n      swap9\n      pop\n      pop\n        /* \"contracts/DrawBox.sol\":5509:6127  function getLotteryInfo(uint256 lotteryId) external view returns (... */\n      swap2\n      swap4\n      swap6\n      swap8\n      pop\n      swap2\n      swap4\n      swap6\n      swap8\n      jump\t// out\n        /* \"contracts/DrawBox.sol\":4453:5365  function claimPrize(uint256 lotteryId, uint256 ticketId) external {... */\n    tag_43:\n        /* \"contracts/DrawBox.sol\":4529:4552  Lottery storage lottery */\n      0x00\n        /* \"contracts/DrawBox.sol\":4555:4564  lotteries */\n      0x02\n        /* \"contracts/DrawBox.sol\":4555:4575  lotteries[lotteryId] */\n      0x00\n        /* \"contracts/DrawBox.sol\":4565:4574  lotteryId */\n      dup5\n        /* \"contracts/DrawBox.sol\":4555:4575  lotteries[lotteryId] */\n      dup2\n      mstore\n      0x20\n      add\n      swap1\n      dup2\n      mstore\n      0x20\n      add\n      0x00\n      keccak256\n        /* \"contracts/DrawBox.sol\":4529:4575  Lottery storage lottery = lotteries[lotteryId] */\n      swap1\n      pop\n        /* \"contracts/DrawBox.sol\":4585:4606  Ticket storage ticket */\n      0x00\n        /* \"contracts/DrawBox.sol\":4609:4616  tickets */\n      0x03\n        /* \"contracts/DrawBox.sol\":4609:4627  tickets[lotteryId] */\n      0x00\n        /* \"contracts/DrawBox.sol\":4617:4626  lotteryId */\n      dup6\n        /* \"contracts/DrawBox.sol\":4609:4627  tickets[lotteryId] */\n      dup2\n      mstore\n      0x20\n      add\n      swap1\n      dup2\n      mstore\n      0x20\n      add\n      0x00\n      keccak256\n        /* \"contracts/DrawBox.sol\":4609:4637  tickets[lotteryId][ticketId] */\n      0x00\n        /* \"contracts/DrawBox.sol\":4628:4636  ticketId */\n      dup5\n        /* \"contracts/DrawBox.sol\":4609:4637  tickets[lotteryId][ticketId] */\n      dup2\n      mstore\n      0x20\n      add\n      swap1\n      dup2\n      mstore\n      0x20\n      add\n      0x00\n      keccak256\n        /* \"contracts/DrawBox.sol\":4585:4637  Ticket storage ticket = tickets[lotteryId][ticketId] */\n      swap1\n      pop\n        /* \"contracts/DrawBox.sol\":4660:4667  lottery */\n      dup2\n        /* \"contracts/DrawBox.sol\":4660:4680  lottery.winnerChosen */\n      0x05\n      add\n      0x00\n      swap1\n      sload\n      swap1\n      0x0100\n      exp\n      swap1\n      div\n      0xff\n      and\n        /* \"contracts/DrawBox.sol\":4656:4731  if(!lottery.winnerChosen) {... */\n      tag_75\n      jumpi\n        /* \"contracts/DrawBox.sol\":4703:4720  WinnerNotChosen() */\n      mload(0x40)\n      0xdc2cff2300000000000000000000000000000000000000000000000000000000\n      dup2\n      mstore\n      0x04\n      add\n      mload(0x40)\n      dup1\n      swap2\n      sub\n      swap1\n      revert\n        /* \"contracts/DrawBox.sol\":4656:4731  if(!lottery.winnerChosen) {... */\n    tag_75:\n        /* \"contracts/DrawBox.sol\":4752:4759  lottery */\n      dup2\n        /* \"contracts/DrawBox.sol\":4752:4767  lottery.claimed */\n      0x05\n      add\n      0x01\n      swap1\n      sload\n      swap1\n      0x0100\n      exp\n      swap1\n      div\n      0xff\n      and\n        /* \"contracts/DrawBox.sol\":4749:4817  if(lottery.claimed) {... */\n      iszero\n      tag_76\n      jumpi\n        /* \"contracts/DrawBox.sol\":4790:4806  AlreadyClaimed() */\n      mload(0x40)\n      0x646cf55800000000000000000000000000000000000000000000000000000000\n      dup2\n      mstore\n      0x04\n      add\n      mload(0x40)\n      dup1\n      swap2\n      sub\n      swap1\n      revert\n        /* \"contracts/DrawBox.sol\":4749:4817  if(lottery.claimed) {... */\n    tag_76:\n        /* \"contracts/DrawBox.sol\":4858:4866  ticketId */\n      dup3\n        /* \"contracts/DrawBox.sol\":4838:4845  lottery */\n      dup3\n        /* \"contracts/DrawBox.sol\":4838:4854  lottery.winnerId */\n      0x04\n      add\n      sload\n        /* \"contracts/DrawBox.sol\":4838:4866  lottery.winnerId != ticketId */\n      eq\n        /* \"contracts/DrawBox.sol\":4835:4915  if(lottery.winnerId != ticketId) {... */\n      tag_77\n      jumpi\n        /* \"contracts/DrawBox.sol\":4889:4904  InvalidWinner() */\n      mload(0x40)\n      0x93a5f3c700000000000000000000000000000000000000000000000000000000\n      dup2\n      mstore\n      0x04\n      add\n      mload(0x40)\n      dup1\n      swap2\n      sub\n      swap1\n      revert\n        /* \"contracts/DrawBox.sol\":4835:4915  if(lottery.winnerId != ticketId) {... */\n    tag_77:\n        /* \"contracts/DrawBox.sol\":4952:4962  msg.sender */\n      caller\n        /* \"contracts/DrawBox.sol\":4936:4962  ticket.owner != msg.sender */\n      0xffffffffffffffffffffffffffffffffffffffff\n      and\n        /* \"contracts/DrawBox.sol\":4936:4942  ticket */\n      dup2\n        /* \"contracts/DrawBox.sol\":4936:4948  ticket.owner */\n      0x02\n      add\n      0x00\n      swap1\n      sload\n      swap1\n      0x0100\n      exp\n      swap1\n      div\n      0xffffffffffffffffffffffffffffffffffffffff\n      and\n        /* \"contracts/DrawBox.sol\":4936:4962  ticket.owner != msg.sender */\n      0xffffffffffffffffffffffffffffffffffffffff\n      and\n      eq\n        /* \"contracts/DrawBox.sol\":4933:5011  if(ticket.owner != msg.sender) {... */\n      tag_78\n      jumpi\n        /* \"contracts/DrawBox.sol\":4985:5000  NotAuthorized() */\n      mload(0x40)\n      0xea8e4eb500000000000000000000000000000000000000000000000000000000\n      dup2\n      mstore\n      0x04\n      add\n      mload(0x40)\n      dup1\n      swap2\n      sub\n      swap1\n      revert\n        /* \"contracts/DrawBox.sol\":4933:5011  if(ticket.owner != msg.sender) {... */\n    tag_78:\n        /* \"contracts/DrawBox.sol\":5047:5051  true */\n      0x01\n        /* \"contracts/DrawBox.sol\":5029:5036  lottery */\n      dup3\n        /* \"contracts/DrawBox.sol\":5029:5044  lottery.claimed */\n      0x05\n      add\n      0x01\n        /* \"contracts/DrawBox.sol\":5029:5051  lottery.claimed = true */\n      0x0100\n      exp\n      dup2\n      sload\n      dup2\n      0xff\n      mul\n      not\n      and\n      swap1\n      dup4\n      iszero\n      iszero\n      mul\n      or\n      swap1\n      sstore\n      pop\n        /* \"contracts/DrawBox.sol\":5061:5080  uint256 prizeAmount */\n      0x00\n        /* \"contracts/DrawBox.sol\":5083:5090  lottery */\n      dup3\n        /* \"contracts/DrawBox.sol\":5083:5101  lottery.totalPrize */\n      0x06\n      add\n      sload\n        /* \"contracts/DrawBox.sol\":5061:5101  uint256 prizeAmount = lottery.totalPrize */\n      swap1\n      pop\n        /* \"contracts/DrawBox.sol\":5165:5177  bool success */\n      0x00\n        /* \"contracts/DrawBox.sol\":5191:5201  msg.sender */\n      caller\n        /* \"contracts/DrawBox.sol\":5183:5207  payable(msg.sender).call */\n      0xffffffffffffffffffffffffffffffffffffffff\n      and\n        /* \"contracts/DrawBox.sol\":5215:5226  prizeAmount */\n      dup3\n        /* \"contracts/DrawBox.sol\":5183:5231  payable(msg.sender).call{value: prizeAmount}(\"\") */\n      mload(0x40)\n      tag_79\n      swap1\n      tag_80\n      jump\t// in\n    tag_79:\n      0x00\n      mload(0x40)\n      dup1\n      dup4\n      sub\n      dup2\n      dup6\n      dup8\n      gas\n      call\n      swap3\n      pop\n      pop\n      pop\n      returndatasize\n      dup1\n      0x00\n      dup2\n      eq\n      tag_83\n      jumpi\n      mload(0x40)\n      swap2\n      pop\n      and(add(returndatasize, 0x3f), not(0x1f))\n      dup3\n      add\n      0x40\n      mstore\n      returndatasize\n      dup3\n      mstore\n      returndatasize\n      0x00\n      0x20\n      dup5\n      add\n      returndatacopy\n      jump(tag_82)\n    tag_83:\n      0x60\n      swap2\n      pop\n    tag_82:\n      pop\n        /* \"contracts/DrawBox.sol\":5164:5231  (bool success, ) = payable(msg.sender).call{value: prizeAmount}(\"\") */\n      pop\n      swap1\n      pop\n        /* \"contracts/DrawBox.sol\":5249:5256  success */\n      dup1\n        /* \"contracts/DrawBox.sol\":5241:5276  require(success, \"Transfer failed\") */\n      tag_84\n      jumpi\n      mload(0x40)\n      0x08c379a000000000000000000000000000000000000000000000000000000000\n      dup2\n      mstore\n      0x04\n      add\n      tag_85\n      swap1\n      tag_86\n      jump\t// in\n    tag_85:\n      mload(0x40)\n      dup1\n      swap2\n      sub\n      swap1\n      revert\n    tag_84:\n        /* \"contracts/DrawBox.sol\":5334:5344  msg.sender */\n      caller\n        /* \"contracts/DrawBox.sol\":5300:5358  PrizeClaimed(lotteryId, ticketId, msg.sender, prizeAmount) */\n      0xffffffffffffffffffffffffffffffffffffffff\n      and\n        /* \"contracts/DrawBox.sol\":5324:5332  ticketId */\n      dup6\n        /* \"contracts/DrawBox.sol\":5313:5322  lotteryId */\n      dup8\n        /* \"contracts/DrawBox.sol\":5300:5358  PrizeClaimed(lotteryId, ticketId, msg.sender, prizeAmount) */\n      0x608c8c3c6a3d40f40b96fbee44f9b9aee57a39c2fcb8bb0f59d8892b2d5492a2\n        /* \"contracts/DrawBox.sol\":5346:5357  prizeAmount */\n      dup6\n        /* \"contracts/DrawBox.sol\":5300:5358  PrizeClaimed(lotteryId, ticketId, msg.sender, prizeAmount) */\n      mload(0x40)\n      tag_87\n      swap2\n      swap1\n      tag_24\n      jump\t// in\n    tag_87:\n      mload(0x40)\n      dup1\n      swap2\n      sub\n      swap1\n      log4\n        /* \"contracts/DrawBox.sol\":4519:5365  {... */\n      pop\n      pop\n      pop\n      pop\n        /* \"contracts/DrawBox.sol\":4453:5365  function claimPrize(uint256 lotteryId, uint256 ticketId) external {... */\n      pop\n      pop\n      jump\t// out\n        /* \"contracts/DrawBox.sol\":223:243  address public owner */\n    tag_46:\n      0x00\n      dup1\n      sload\n      swap1\n      0x0100\n      exp\n      swap1\n      div\n      0xffffffffffffffffffffffffffffffffffffffff\n      and\n      dup2\n      jump\t// out\n        /* \"contracts/DrawBox.sol\":1849:2317  function createLottery(uint256 ticketPrice) external {... */\n    tag_52:\n        /* \"contracts/DrawBox.sol\":1912:1928  lotteryIdCounter */\n      0x01\n      0x00\n        /* \"contracts/DrawBox.sol\":1912:1930  lotteryIdCounter++ */\n      dup2\n      sload\n      dup1\n      swap3\n      swap2\n      swap1\n      tag_89\n      swap1\n      tag_69\n      jump\t// in\n    tag_89:\n      swap2\n      swap1\n      pop\n      sstore\n      pop\n        /* \"contracts/DrawBox.sol\":1949:1972  Lottery storage lottery */\n      0x00\n        /* \"contracts/DrawBox.sol\":1975:1984  lotteries */\n      0x02\n        /* \"contracts/DrawBox.sol\":1975:2002  lotteries[lotteryIdCounter] */\n      0x00\n        /* \"contracts/DrawBox.sol\":1985:2001  lotteryIdCounter */\n      sload(0x01)\n        /* \"contracts/DrawBox.sol\":1975:2002  lotteries[lotteryIdCounter] */\n      dup2\n      mstore\n      0x20\n      add\n      swap1\n      dup2\n      mstore\n      0x20\n      add\n      0x00\n      keccak256\n        /* \"contracts/DrawBox.sol\":1949:2002  Lottery storage lottery = lotteries[lotteryIdCounter] */\n      swap1\n      pop\n        /* \"contracts/DrawBox.sol\":2025:2041  lotteryIdCounter */\n      sload(0x01)\n        /* \"contracts/DrawBox.sol\":2012:2019  lottery */\n      dup2\n        /* \"contracts/DrawBox.sol\":2012:2022  lottery.id */\n      0x00\n      add\n        /* \"contracts/DrawBox.sol\":2012:2041  lottery.id = lotteryIdCounter */\n      dup2\n      swap1\n      sstore\n      pop\n        /* \"contracts/DrawBox.sol\":2071:2081  msg.sender */\n      caller\n        /* \"contracts/DrawBox.sol\":2051:2058  lottery */\n      dup2\n        /* \"contracts/DrawBox.sol\":2051:2068  lottery.authority */\n      0x01\n      add\n      0x00\n        /* \"contracts/DrawBox.sol\":2051:2081  lottery.authority = msg.sender */\n      0x0100\n      exp\n      dup2\n      sload\n      dup2\n      0xffffffffffffffffffffffffffffffffffffffff\n      mul\n      not\n      and\n      swap1\n      dup4\n      0xffffffffffffffffffffffffffffffffffffffff\n      and\n      mul\n      or\n      swap1\n      sstore\n      pop\n        /* \"contracts/DrawBox.sol\":2113:2124  ticketPrice */\n      dup2\n        /* \"contracts/DrawBox.sol\":2091:2098  lottery */\n      dup2\n        /* \"contracts/DrawBox.sol\":2091:2110  lottery.ticketPrice */\n      0x02\n      add\n        /* \"contracts/DrawBox.sol\":2091:2124  lottery.ticketPrice = ticketPrice */\n      dup2\n      swap1\n      sstore\n      pop\n        /* \"contracts/DrawBox.sol\":2157:2158  0 */\n      0x00\n        /* \"contracts/DrawBox.sol\":2134:2141  lottery */\n      dup2\n        /* \"contracts/DrawBox.sol\":2134:2154  lottery.lastTicketId */\n      0x03\n      add\n        /* \"contracts/DrawBox.sol\":2134:2158  lottery.lastTicketId = 0 */\n      dup2\n      swap1\n      sstore\n      pop\n        /* \"contracts/DrawBox.sol\":2191:2196  false */\n      0x00\n        /* \"contracts/DrawBox.sol\":2168:2175  lottery */\n      dup2\n        /* \"contracts/DrawBox.sol\":2168:2188  lottery.winnerChosen */\n      0x05\n      add\n      0x00\n        /* \"contracts/DrawBox.sol\":2168:2196  lottery.winnerChosen = false */\n      0x0100\n      exp\n      dup2\n      sload\n      dup2\n      0xff\n      mul\n      not\n      and\n      swap1\n      dup4\n      iszero\n      iszero\n      mul\n      or\n      swap1\n      sstore\n      pop\n        /* \"contracts/DrawBox.sol\":2224:2229  false */\n      0x00\n        /* \"contracts/DrawBox.sol\":2206:2213  lottery */\n      dup2\n        /* \"contracts/DrawBox.sol\":2206:2221  lottery.claimed */\n      0x05\n      add\n      0x01\n        /* \"contracts/DrawBox.sol\":2206:2229  lottery.claimed = false */\n      0x0100\n      exp\n      dup2\n      sload\n      dup2\n      0xff\n      mul\n      not\n      and\n      swap1\n      dup4\n      iszero\n      iszero\n      mul\n      or\n      swap1\n      sstore\n      pop\n        /* \"contracts/DrawBox.sol\":2286:2296  msg.sender */\n      caller\n        /* \"contracts/DrawBox.sol\":2253:2310  LotteryCreated(lotteryIdCounter, msg.sender, ticketPrice) */\n      0xffffffffffffffffffffffffffffffffffffffff\n      and\n        /* \"contracts/DrawBox.sol\":2268:2284  lotteryIdCounter */\n      sload(0x01)\n        /* \"contracts/DrawBox.sol\":2253:2310  LotteryCreated(lotteryIdCounter, msg.sender, ticketPrice) */\n      0x17c4235e5445edc74f9f07d8c362f1874338559a87e5f25978a39ba4b662e1f5\n        /* \"contracts/DrawBox.sol\":2298:2309  ticketPrice */\n      dup5\n        /* \"contracts/DrawBox.sol\":2253:2310  LotteryCreated(lotteryIdCounter, msg.sender, ticketPrice) */\n      mload(0x40)\n      tag_90\n      swap2\n      swap1\n      tag_24\n      jump\t// in\n    tag_90:\n      mload(0x40)\n      dup1\n      swap2\n      sub\n      swap1\n      log3\n        /* \"contracts/DrawBox.sol\":1902:2317  {... */\n      pop\n        /* \"contracts/DrawBox.sol\":1849:2317  function createLottery(uint256 ticketPrice) external {... */\n      pop\n      jump\t// out\n        /* \"contracts/DrawBox.sol\":699:760  mapping(uint256 => mapping(uint256 => Ticket)) public tickets */\n    tag_56:\n      mstore(0x20, 0x03)\n      dup2\n      0x00\n      mstore\n      mstore(0x20, keccak256(0x00, 0x40))\n      dup1\n      0x00\n      mstore\n      keccak256(0x00, 0x40)\n      0x00\n      swap2\n      pop\n      swap2\n      pop\n      pop\n      dup1\n      0x00\n      add\n      sload\n      swap1\n      dup1\n      0x01\n      add\n      sload\n      swap1\n      dup1\n      0x02\n      add\n      0x00\n      swap1\n      sload\n      swap1\n      0x0100\n      exp\n      swap1\n      div\n      0xffffffffffffffffffffffffffffffffffffffff\n      and\n      swap1\n      pop\n      dup4\n      jump\t// out\n        /* \"contracts/DrawBox.sol\":3402:4288  function pickWinner(uint256 lotteryId) external onlyLotteryAuthority(lotteryId) {... */\n    tag_61:\n        /* \"contracts/DrawBox.sol\":3471:3480  lotteryId */\n      dup1\n        /* \"contracts/DrawBox.sol\":1628:1638  msg.sender */\n      caller\n        /* \"contracts/DrawBox.sol\":1594:1638  lotteries[lotteryId].authority != msg.sender */\n      0xffffffffffffffffffffffffffffffffffffffff\n      and\n        /* \"contracts/DrawBox.sol\":1594:1603  lotteries */\n      0x02\n        /* \"contracts/DrawBox.sol\":1594:1614  lotteries[lotteryId] */\n      0x00\n        /* \"contracts/DrawBox.sol\":1604:1613  lotteryId */\n      dup4\n        /* \"contracts/DrawBox.sol\":1594:1614  lotteries[lotteryId] */\n      dup2\n      mstore\n      0x20\n      add\n      swap1\n      dup2\n      mstore\n      0x20\n      add\n      0x00\n      keccak256\n        /* \"contracts/DrawBox.sol\":1594:1624  lotteries[lotteryId].authority */\n      0x01\n      add\n      0x00\n      swap1\n      sload\n      swap1\n      0x0100\n      exp\n      swap1\n      div\n      0xffffffffffffffffffffffffffffffffffffffff\n      and\n        /* \"contracts/DrawBox.sol\":1594:1638  lotteries[lotteryId].authority != msg.sender */\n      0xffffffffffffffffffffffffffffffffffffffff\n      and\n      eq\n        /* \"contracts/DrawBox.sol\":1591:1687  if(lotteries[lotteryId].authority != msg.sender) {... */\n      tag_92\n      jumpi\n        /* \"contracts/DrawBox.sol\":1661:1676  NotAuthorized() */\n      mload(0x40)\n      0xea8e4eb500000000000000000000000000000000000000000000000000000000\n      dup2\n      mstore\n      0x04\n      add\n      mload(0x40)\n      dup1\n      swap2\n      sub\n      swap1\n      revert\n        /* \"contracts/DrawBox.sol\":1591:1687  if(lotteries[lotteryId].authority != msg.sender) {... */\n    tag_92:\n        /* \"contracts/DrawBox.sol\":3492:3515  Lottery storage lottery */\n      0x00\n        /* \"contracts/DrawBox.sol\":3518:3527  lotteries */\n      0x02\n        /* \"contracts/DrawBox.sol\":3518:3538  lotteries[lotteryId] */\n      0x00\n        /* \"contracts/DrawBox.sol\":3528:3537  lotteryId */\n      dup5\n        /* \"contracts/DrawBox.sol\":3518:3538  lotteries[lotteryId] */\n      dup2\n      mstore\n      0x20\n      add\n      swap1\n      dup2\n      mstore\n      0x20\n      add\n      0x00\n      keccak256\n        /* \"contracts/DrawBox.sol\":3492:3538  Lottery storage lottery = lotteries[lotteryId] */\n      swap1\n      pop\n        /* \"contracts/DrawBox.sol\":3560:3567  lottery */\n      dup1\n        /* \"contracts/DrawBox.sol\":3560:3580  lottery.winnerChosen */\n      0x05\n      add\n      0x00\n      swap1\n      sload\n      swap1\n      0x0100\n      exp\n      swap1\n      div\n      0xff\n      and\n        /* \"contracts/DrawBox.sol\":3557:3635  if(lottery.winnerChosen) {... */\n      iszero\n      tag_94\n      jumpi\n        /* \"contracts/DrawBox.sol\":3603:3624  WinnerAlreadyExists() */\n      mload(0x40)\n      0xd9b532e600000000000000000000000000000000000000000000000000000000\n      dup2\n      mstore\n      0x04\n      add\n      mload(0x40)\n      dup1\n      swap2\n      sub\n      swap1\n      revert\n        /* \"contracts/DrawBox.sol\":3557:3635  if(lottery.winnerChosen) {... */\n    tag_94:\n        /* \"contracts/DrawBox.sol\":3680:3681  0 */\n      0x00\n        /* \"contracts/DrawBox.sol\":3656:3663  lottery */\n      dup2\n        /* \"contracts/DrawBox.sol\":3656:3676  lottery.lastTicketId */\n      0x03\n      add\n      sload\n        /* \"contracts/DrawBox.sol\":3656:3681  lottery.lastTicketId == 0 */\n      sub\n        /* \"contracts/DrawBox.sol\":3653:3726  if(lottery.lastTicketId == 0) {... */\n      tag_95\n      jumpi\n        /* \"contracts/DrawBox.sol\":3704:3715  NoTickets() */\n      mload(0x40)\n      0x66f3ef9b00000000000000000000000000000000000000000000000000000000\n      dup2\n      mstore\n      0x04\n      add\n      mload(0x40)\n      dup1\n      swap2\n      sub\n      swap1\n      revert\n        /* \"contracts/DrawBox.sol\":3653:3726  if(lottery.lastTicketId == 0) {... */\n    tag_95:\n        /* \"contracts/DrawBox.sol\":3907:3927  uint256 randomNumber */\n      0x00\n        /* \"contracts/DrawBox.sol\":3978:3993  block.timestamp */\n      timestamp\n        /* \"contracts/DrawBox.sol\":4032:4033  1 */\n      0x01\n        /* \"contracts/DrawBox.sol\":4017:4029  block.number */\n      number\n        /* \"contracts/DrawBox.sol\":4017:4033  block.number - 1 */\n      tag_96\n      swap2\n      swap1\n      tag_97\n      jump\t// in\n    tag_96:\n        /* \"contracts/DrawBox.sol\":4007:4034  blockhash(block.number - 1) */\n      blockhash\n        /* \"contracts/DrawBox.sol\":4048:4057  lotteryId */\n      dup6\n        /* \"contracts/DrawBox.sol\":3948:4067  abi.encodePacked(... */\n      add(0x20, mload(0x40))\n      tag_98\n      swap4\n      swap3\n      swap2\n      swap1\n      tag_99\n      jump\t// in\n    tag_98:\n      mload(0x40)\n      0x20\n      dup2\n      dup4\n      sub\n      sub\n      dup2\n      mstore\n      swap1\n      0x40\n      mstore\n        /* \"contracts/DrawBox.sol\":3938:4068  keccak256(abi.encodePacked(... */\n      dup1\n      mload\n      swap1\n      0x20\n      add\n      keccak256\n        /* \"contracts/DrawBox.sol\":3930:4069  uint256(keccak256(abi.encodePacked(... */\n      0x00\n      shr\n        /* \"contracts/DrawBox.sol\":3907:4069  uint256 randomNumber = uint256(keccak256(abi.encodePacked(... */\n      swap1\n      pop\n        /* \"contracts/DrawBox.sol\":4088:4104  uint256 winnerId */\n      0x00\n        /* \"contracts/DrawBox.sol\":4147:4148  1 */\n      0x01\n        /* \"contracts/DrawBox.sol\":4123:4130  lottery */\n      dup4\n        /* \"contracts/DrawBox.sol\":4123:4143  lottery.lastTicketId */\n      0x03\n      add\n      sload\n        /* \"contracts/DrawBox.sol\":4108:4120  randomNumber */\n      dup4\n        /* \"contracts/DrawBox.sol\":4108:4143  randomNumber % lottery.lastTicketId */\n      tag_100\n      swap2\n      swap1\n      tag_101\n      jump\t// in\n    tag_100:\n        /* \"contracts/DrawBox.sol\":4107:4148  (randomNumber % lottery.lastTicketId) + 1 */\n      tag_102\n      swap2\n      swap1\n      tag_71\n      jump\t// in\n    tag_102:\n        /* \"contracts/DrawBox.sol\":4088:4148  uint256 winnerId = (randomNumber % lottery.lastTicketId) + 1 */\n      swap1\n      pop\n        /* \"contracts/DrawBox.sol\":4177:4185  winnerId */\n      dup1\n        /* \"contracts/DrawBox.sol\":4158:4165  lottery */\n      dup4\n        /* \"contracts/DrawBox.sol\":4158:4174  lottery.winnerId */\n      0x04\n      add\n        /* \"contracts/DrawBox.sol\":4158:4185  lottery.winnerId = winnerId */\n      dup2\n      swap1\n      sstore\n      pop\n        /* \"contracts/DrawBox.sol\":4218:4222  true */\n      0x01\n        /* \"contracts/DrawBox.sol\":4195:4202  lottery */\n      dup4\n        /* \"contracts/DrawBox.sol\":4195:4215  lottery.winnerChosen */\n      0x05\n      add\n      0x00\n        /* \"contracts/DrawBox.sol\":4195:4222  lottery.winnerChosen = true */\n      0x0100\n      exp\n      dup2\n      sload\n      dup2\n      0xff\n      mul\n      not\n      and\n      swap1\n      dup4\n      iszero\n      iszero\n      mul\n      or\n      swap1\n      sstore\n      pop\n        /* \"contracts/DrawBox.sol\":4272:4280  winnerId */\n      dup1\n        /* \"contracts/DrawBox.sol\":4261:4270  lotteryId */\n      dup6\n        /* \"contracts/DrawBox.sol\":4246:4281  WinnerSelected(lotteryId, winnerId) */\n      0xca1dae47f36d2b335e85f1cb82f7d34f0a5ea31328e3ab461cbd70219ec90c9e\n      mload(0x40)\n      mload(0x40)\n      dup1\n      swap2\n      sub\n      swap1\n      log3\n        /* \"contracts/DrawBox.sol\":3482:4288  {... */\n      pop\n      pop\n      pop\n        /* \"contracts/DrawBox.sol\":3402:4288  function pickWinner(uint256 lotteryId) external onlyLotteryAuthority(lotteryId) {... */\n      pop\n      pop\n      jump\t// out\n        /* \"#utility.yul\":88:205   */\n    tag_104:\n        /* \"#utility.yul\":197:198   */\n      0x00\n        /* \"#utility.yul\":194:195   */\n      dup1\n        /* \"#utility.yul\":187:199   */\n      revert\n        /* \"#utility.yul\":334:411   */\n    tag_106:\n        /* \"#utility.yul\":371:378   */\n      0x00\n        /* \"#utility.yul\":400:405   */\n      dup2\n        /* \"#utility.yul\":389:405   */\n      swap1\n      pop\n        /* \"#utility.yul\":334:411   */\n      swap2\n      swap1\n      pop\n      jump\t// out\n        /* \"#utility.yul\":417:539   */\n    tag_107:\n        /* \"#utility.yul\":490:514   */\n      tag_136\n        /* \"#utility.yul\":508:513   */\n      dup2\n        /* \"#utility.yul\":490:514   */\n      tag_106\n      jump\t// in\n    tag_136:\n        /* \"#utility.yul\":483:488   */\n      dup2\n        /* \"#utility.yul\":480:515   */\n      eq\n        /* \"#utility.yul\":470:533   */\n      tag_137\n      jumpi\n        /* \"#utility.yul\":529:530   */\n      0x00\n        /* \"#utility.yul\":526:527   */\n      dup1\n        /* \"#utility.yul\":519:531   */\n      revert\n        /* \"#utility.yul\":470:533   */\n    tag_137:\n        /* \"#utility.yul\":417:539   */\n      pop\n      jump\t// out\n        /* \"#utility.yul\":545:684   */\n    tag_108:\n        /* \"#utility.yul\":591:596   */\n      0x00\n        /* \"#utility.yul\":629:635   */\n      dup2\n        /* \"#utility.yul\":616:636   */\n      calldataload\n        /* \"#utility.yul\":607:636   */\n      swap1\n      pop\n        /* \"#utility.yul\":645:678   */\n      tag_139\n        /* \"#utility.yul\":672:677   */\n      dup2\n        /* \"#utility.yul\":645:678   */\n      tag_107\n      jump\t// in\n    tag_139:\n        /* \"#utility.yul\":545:684   */\n      swap3\n      swap2\n      pop\n      pop\n      jump\t// out\n        /* \"#utility.yul\":690:1019   */\n    tag_16:\n        /* \"#utility.yul\":749:755   */\n      0x00\n        /* \"#utility.yul\":798:800   */\n      0x20\n        /* \"#utility.yul\":786:795   */\n      dup3\n        /* \"#utility.yul\":777:784   */\n      dup5\n        /* \"#utility.yul\":773:796   */\n      sub\n        /* \"#utility.yul\":769:801   */\n      slt\n        /* \"#utility.yul\":766:885   */\n      iszero\n      tag_141\n      jumpi\n        /* \"#utility.yul\":804:883   */\n      tag_142\n      tag_104\n      jump\t// in\n    tag_142:\n        /* \"#utility.yul\":766:885   */\n    tag_141:\n        /* \"#utility.yul\":924:925   */\n      0x00\n        /* \"#utility.yul\":949:1002   */\n      tag_143\n        /* \"#utility.yul\":994:1001   */\n      dup5\n        /* \"#utility.yul\":985:991   */\n      dup3\n        /* \"#utility.yul\":974:983   */\n      dup6\n        /* \"#utility.yul\":970:992   */\n      add\n        /* \"#utility.yul\":949:1002   */\n      tag_108\n      jump\t// in\n    tag_143:\n        /* \"#utility.yul\":939:1002   */\n      swap2\n      pop\n        /* \"#utility.yul\":895:1012   */\n      pop\n        /* \"#utility.yul\":690:1019   */\n      swap3\n      swap2\n      pop\n      pop\n      jump\t// out\n        /* \"#utility.yul\":1025:1143   */\n    tag_109:\n        /* \"#utility.yul\":1112:1136   */\n      tag_145\n        /* \"#utility.yul\":1130:1135   */\n      dup2\n        /* \"#utility.yul\":1112:1136   */\n      tag_106\n      jump\t// in\n    tag_145:\n        /* \"#utility.yul\":1107:1110   */\n      dup3\n        /* \"#utility.yul\":1100:1137   */\n      mstore\n        /* \"#utility.yul\":1025:1143   */\n      pop\n      pop\n      jump\t// out\n        /* \"#utility.yul\":1149:1275   */\n    tag_110:\n        /* \"#utility.yul\":1186:1193   */\n      0x00\n        /* \"#utility.yul\":1226:1268   */\n      0xffffffffffffffffffffffffffffffffffffffff\n        /* \"#utility.yul\":1219:1224   */\n      dup3\n        /* \"#utility.yul\":1215:1269   */\n      and\n        /* \"#utility.yul\":1204:1269   */\n      swap1\n      pop\n        /* \"#utility.yul\":1149:1275   */\n      swap2\n      swap1\n      pop\n      jump\t// out\n        /* \"#utility.yul\":1281:1377   */\n    tag_111:\n        /* \"#utility.yul\":1318:1325   */\n      0x00\n        /* \"#utility.yul\":1347:1371   */\n      tag_148\n        /* \"#utility.yul\":1365:1370   */\n      dup3\n        /* \"#utility.yul\":1347:1371   */\n      tag_110\n      jump\t// in\n    tag_148:\n        /* \"#utility.yul\":1336:1371   */\n      swap1\n      pop\n        /* \"#utility.yul\":1281:1377   */\n      swap2\n      swap1\n      pop\n      jump\t// out\n        /* \"#utility.yul\":1383:1501   */\n    tag_112:\n        /* \"#utility.yul\":1470:1494   */\n      tag_150\n        /* \"#utility.yul\":1488:1493   */\n      dup2\n        /* \"#utility.yul\":1470:1494   */\n      tag_111\n      jump\t// in\n    tag_150:\n        /* \"#utility.yul\":1465:1468   */\n      dup3\n        /* \"#utility.yul\":1458:1495   */\n      mstore\n        /* \"#utility.yul\":1383:1501   */\n      pop\n      pop\n      jump\t// out\n        /* \"#utility.yul\":1507:1597   */\n    tag_113:\n        /* \"#utility.yul\":1541:1548   */\n      0x00\n        /* \"#utility.yul\":1584:1589   */\n      dup2\n        /* \"#utility.yul\":1577:1590   */\n      iszero\n        /* \"#utility.yul\":1570:1591   */\n      iszero\n        /* \"#utility.yul\":1559:1591   */\n      swap1\n      pop\n        /* \"#utility.yul\":1507:1597   */\n      swap2\n      swap1\n      pop\n      jump\t// out\n        /* \"#utility.yul\":1603:1712   */\n    tag_114:\n        /* \"#utility.yul\":1684:1705   */\n      tag_153\n        /* \"#utility.yul\":1699:1704   */\n      dup2\n        /* \"#utility.yul\":1684:1705   */\n      tag_113\n      jump\t// in\n    tag_153:\n        /* \"#utility.yul\":1679:1682   */\n      dup3\n        /* \"#utility.yul\":1672:1706   */\n      mstore\n        /* \"#utility.yul\":1603:1712   */\n      pop\n      pop\n      jump\t// out\n        /* \"#utility.yul\":1718:2691   */\n    tag_19:\n        /* \"#utility.yul\":1995:1999   */\n      0x00\n        /* \"#utility.yul\":2033:2036   */\n      0x0100\n        /* \"#utility.yul\":2022:2031   */\n      dup3\n        /* \"#utility.yul\":2018:2037   */\n      add\n        /* \"#utility.yul\":2010:2037   */\n      swap1\n      pop\n        /* \"#utility.yul\":2047:2118   */\n      tag_155\n        /* \"#utility.yul\":2115:2116   */\n      0x00\n        /* \"#utility.yul\":2104:2113   */\n      dup4\n        /* \"#utility.yul\":2100:2117   */\n      add\n        /* \"#utility.yul\":2091:2097   */\n      dup12\n        /* \"#utility.yul\":2047:2118   */\n      tag_109\n      jump\t// in\n    tag_155:\n        /* \"#utility.yul\":2128:2200   */\n      tag_156\n        /* \"#utility.yul\":2196:2198   */\n      0x20\n        /* \"#utility.yul\":2185:2194   */\n      dup4\n        /* \"#utility.yul\":2181:2199   */\n      add\n        /* \"#utility.yul\":2172:2178   */\n      dup11\n        /* \"#utility.yul\":2128:2200   */\n      tag_112\n      jump\t// in\n    tag_156:\n        /* \"#utility.yul\":2210:2282   */\n      tag_157\n        /* \"#utility.yul\":2278:2280   */\n      0x40\n        /* \"#utility.yul\":2267:2276   */\n      dup4\n        /* \"#utility.yul\":2263:2281   */\n      add\n        /* \"#utility.yul\":2254:2260   */\n      dup10\n        /* \"#utility.yul\":2210:2282   */\n      tag_109\n      jump\t// in\n    tag_157:\n        /* \"#utility.yul\":2292:2364   */\n      tag_158\n        /* \"#utility.yul\":2360:2362   */\n      0x60\n        /* \"#utility.yul\":2349:2358   */\n      dup4\n        /* \"#utility.yul\":2345:2363   */\n      add\n        /* \"#utility.yul\":2336:2342   */\n      dup9\n        /* \"#utility.yul\":2292:2364   */\n      tag_109\n      jump\t// in\n    tag_158:\n        /* \"#utility.yul\":2374:2447   */\n      tag_159\n        /* \"#utility.yul\":2442:2445   */\n      0x80\n        /* \"#utility.yul\":2431:2440   */\n      dup4\n        /* \"#utility.yul\":2427:2446   */\n      add\n        /* \"#utility.yul\":2418:2424   */\n      dup8\n        /* \"#utility.yul\":2374:2447   */\n      tag_109\n      jump\t// in\n    tag_159:\n        /* \"#utility.yul\":2457:2524   */\n      tag_160\n        /* \"#utility.yul\":2519:2522   */\n      0xa0\n        /* \"#utility.yul\":2508:2517   */\n      dup4\n        /* \"#utility.yul\":2504:2523   */\n      add\n        /* \"#utility.yul\":2495:2501   */\n      dup7\n        /* \"#utility.yul\":2457:2524   */\n      tag_114\n      jump\t// in\n    tag_160:\n        /* \"#utility.yul\":2534:2601   */\n      tag_161\n        /* \"#utility.yul\":2596:2599   */\n      0xc0\n        /* \"#utility.yul\":2585:2594   */\n      dup4\n        /* \"#utility.yul\":2581:2600   */\n      add\n        /* \"#utility.yul\":2572:2578   */\n      dup6\n        /* \"#utility.yul\":2534:2601   */\n      tag_114\n      jump\t// in\n    tag_161:\n        /* \"#utility.yul\":2611:2684   */\n      tag_162\n        /* \"#utility.yul\":2679:2682   */\n      0xe0\n        /* \"#utility.yul\":2668:2677   */\n      dup4\n        /* \"#utility.yul\":2664:2683   */\n      add\n        /* \"#utility.yul\":2655:2661   */\n      dup5\n        /* \"#utility.yul\":2611:2684   */\n      tag_109\n      jump\t// in\n    tag_162:\n        /* \"#utility.yul\":1718:2691   */\n      swap10\n      swap9\n      pop\n      pop\n      pop\n      pop\n      pop\n      pop\n      pop\n      pop\n      pop\n      jump\t// out\n        /* \"#utility.yul\":2697:2919   */\n    tag_24:\n        /* \"#utility.yul\":2790:2794   */\n      0x00\n        /* \"#utility.yul\":2828:2830   */\n      0x20\n        /* \"#utility.yul\":2817:2826   */\n      dup3\n        /* \"#utility.yul\":2813:2831   */\n      add\n        /* \"#utility.yul\":2805:2831   */\n      swap1\n      pop\n        /* \"#utility.yul\":2841:2912   */\n      tag_164\n        /* \"#utility.yul\":2909:2910   */\n      0x00\n        /* \"#utility.yul\":2898:2907   */\n      dup4\n        /* \"#utility.yul\":2894:2911   */\n      add\n        /* \"#utility.yul\":2885:2891   */\n      dup5\n        /* \"#utility.yul\":2841:2912   */\n      tag_109\n      jump\t// in\n    tag_164:\n        /* \"#utility.yul\":2697:2919   */\n      swap3\n      swap2\n      pop\n      pop\n      jump\t// out\n        /* \"#utility.yul\":2925:3399   */\n    tag_31:\n        /* \"#utility.yul\":2993:2999   */\n      0x00\n        /* \"#utility.yul\":3001:3007   */\n      dup1\n        /* \"#utility.yul\":3050:3052   */\n      0x40\n        /* \"#utility.yul\":3038:3047   */\n      dup4\n        /* \"#utility.yul\":3029:3036   */\n      dup6\n        /* \"#utility.yul\":3025:3048   */\n      sub\n        /* \"#utility.yul\":3021:3053   */\n      slt\n        /* \"#utility.yul\":3018:3137   */\n      iszero\n      tag_166\n      jumpi\n        /* \"#utility.yul\":3056:3135   */\n      tag_167\n      tag_104\n      jump\t// in\n    tag_167:\n        /* \"#utility.yul\":3018:3137   */\n    tag_166:\n        /* \"#utility.yul\":3176:3177   */\n      0x00\n        /* \"#utility.yul\":3201:3254   */\n      tag_168\n        /* \"#utility.yul\":3246:3253   */\n      dup6\n        /* \"#utility.yul\":3237:3243   */\n      dup3\n        /* \"#utility.yul\":3226:3235   */\n      dup7\n        /* \"#utility.yul\":3222:3244   */\n      add\n        /* \"#utility.yul\":3201:3254   */\n      tag_108\n      jump\t// in\n    tag_168:\n        /* \"#utility.yul\":3191:3254   */\n      swap3\n      pop\n        /* \"#utility.yul\":3147:3264   */\n      pop\n        /* \"#utility.yul\":3303:3305   */\n      0x20\n        /* \"#utility.yul\":3329:3382   */\n      tag_169\n        /* \"#utility.yul\":3374:3381   */\n      dup6\n        /* \"#utility.yul\":3365:3371   */\n      dup3\n        /* \"#utility.yul\":3354:3363   */\n      dup7\n        /* \"#utility.yul\":3350:3372   */\n      add\n        /* \"#utility.yul\":3329:3382   */\n      tag_108\n      jump\t// in\n    tag_169:\n        /* \"#utility.yul\":3319:3382   */\n      swap2\n      pop\n        /* \"#utility.yul\":3274:3392   */\n      pop\n        /* \"#utility.yul\":2925:3399   */\n      swap3\n      pop\n      swap3\n      swap1\n      pop\n      jump\t// out\n        /* \"#utility.yul\":3405:3847   */\n    tag_34:\n        /* \"#utility.yul\":3554:3558   */\n      0x00\n        /* \"#utility.yul\":3592:3594   */\n      0x60\n        /* \"#utility.yul\":3581:3590   */\n      dup3\n        /* \"#utility.yul\":3577:3595   */\n      add\n        /* \"#utility.yul\":3569:3595   */\n      swap1\n      pop\n        /* \"#utility.yul\":3605:3676   */\n      tag_171\n        /* \"#utility.yul\":3673:3674   */\n      0x00\n        /* \"#utility.yul\":3662:3671   */\n      dup4\n        /* \"#utility.yul\":3658:3675   */\n      add\n        /* \"#utility.yul\":3649:3655   */\n      dup7\n        /* \"#utility.yul\":3605:3676   */\n      tag_109\n      jump\t// in\n    tag_171:\n        /* \"#utility.yul\":3686:3758   */\n      tag_172\n        /* \"#utility.yul\":3754:3756   */\n      0x20\n        /* \"#utility.yul\":3743:3752   */\n      dup4\n        /* \"#utility.yul\":3739:3757   */\n      add\n        /* \"#utility.yul\":3730:3736   */\n      dup6\n        /* \"#utility.yul\":3686:3758   */\n      tag_109\n      jump\t// in\n    tag_172:\n        /* \"#utility.yul\":3768:3840   */\n      tag_173\n        /* \"#utility.yul\":3836:3838   */\n      0x40\n        /* \"#utility.yul\":3825:3834   */\n      dup4\n        /* \"#utility.yul\":3821:3839   */\n      add\n        /* \"#utility.yul\":3812:3818   */\n      dup5\n        /* \"#utility.yul\":3768:3840   */\n      tag_112\n      jump\t// in\n    tag_173:\n        /* \"#utility.yul\":3405:3847   */\n      swap5\n      swap4\n      pop\n      pop\n      pop\n      pop\n      jump\t// out\n        /* \"#utility.yul\":3853:4075   */\n    tag_48:\n        /* \"#utility.yul\":3946:3950   */\n      0x00\n        /* \"#utility.yul\":3984:3986   */\n      0x20\n        /* \"#utility.yul\":3973:3982   */\n      dup3\n        /* \"#utility.yul\":3969:3987   */\n      add\n        /* \"#utility.yul\":3961:3987   */\n      swap1\n      pop\n        /* \"#utility.yul\":3997:4068   */\n      tag_175\n        /* \"#utility.yul\":4065:4066   */\n      0x00\n        /* \"#utility.yul\":4054:4063   */\n      dup4\n        /* \"#utility.yul\":4050:4067   */\n      add\n        /* \"#utility.yul\":4041:4047   */\n      dup5\n        /* \"#utility.yul\":3997:4068   */\n      tag_112\n      jump\t// in\n    tag_175:\n        /* \"#utility.yul\":3853:4075   */\n      swap3\n      swap2\n      pop\n      pop\n      jump\t// out\n        /* \"#utility.yul\":4081:4250   */\n    tag_115:\n        /* \"#utility.yul\":4165:4176   */\n      0x00\n        /* \"#utility.yul\":4199:4205   */\n      dup3\n        /* \"#utility.yul\":4194:4197   */\n      dup3\n        /* \"#utility.yul\":4187:4206   */\n      mstore\n        /* \"#utility.yul\":4239:4243   */\n      0x20\n        /* \"#utility.yul\":4234:4237   */\n      dup3\n        /* \"#utility.yul\":4230:4244   */\n      add\n        /* \"#utility.yul\":4215:4244   */\n      swap1\n      pop\n        /* \"#utility.yul\":4081:4250   */\n      swap3\n      swap2\n      pop\n      pop\n      jump\t// out\n        /* \"#utility.yul\":4256:4428   */\n    tag_116:\n        /* \"#utility.yul\":4396:4420   */\n      0x4c6f747465727920646f6573206e6f7420657869737400000000000000000000\n        /* \"#utility.yul\":4392:4393   */\n      0x00\n        /* \"#utility.yul\":4384:4390   */\n      dup3\n        /* \"#utility.yul\":4380:4394   */\n      add\n        /* \"#utility.yul\":4373:4421   */\n      mstore\n        /* \"#utility.yul\":4256:4428   */\n      pop\n      jump\t// out\n        /* \"#utility.yul\":4434:4800   */\n    tag_117:\n        /* \"#utility.yul\":4576:4579   */\n      0x00\n        /* \"#utility.yul\":4597:4664   */\n      tag_179\n        /* \"#utility.yul\":4661:4663   */\n      0x16\n        /* \"#utility.yul\":4656:4659   */\n      dup4\n        /* \"#utility.yul\":4597:4664   */\n      tag_115\n      jump\t// in\n    tag_179:\n        /* \"#utility.yul\":4590:4664   */\n      swap2\n      pop\n        /* \"#utility.yul\":4673:4766   */\n      tag_180\n        /* \"#utility.yul\":4762:4765   */\n      dup3\n        /* \"#utility.yul\":4673:4766   */\n      tag_116\n      jump\t// in\n    tag_180:\n        /* \"#utility.yul\":4791:4793   */\n      0x20\n        /* \"#utility.yul\":4786:4789   */\n      dup3\n        /* \"#utility.yul\":4782:4794   */\n      add\n        /* \"#utility.yul\":4775:4794   */\n      swap1\n      pop\n        /* \"#utility.yul\":4434:4800   */\n      swap2\n      swap1\n      pop\n      jump\t// out\n        /* \"#utility.yul\":4806:5225   */\n    tag_65:\n        /* \"#utility.yul\":4972:4976   */\n      0x00\n        /* \"#utility.yul\":5010:5012   */\n      0x20\n        /* \"#utility.yul\":4999:5008   */\n      dup3\n        /* \"#utility.yul\":4995:5013   */\n      add\n        /* \"#utility.yul\":4987:5013   */\n      swap1\n      pop\n        /* \"#utility.yul\":5059:5068   */\n      dup2\n        /* \"#utility.yul\":5053:5057   */\n      dup2\n        /* \"#utility.yul\":5049:5069   */\n      sub\n        /* \"#utility.yul\":5045:5046   */\n      0x00\n        /* \"#utility.yul\":5034:5043   */\n      dup4\n        /* \"#utility.yul\":5030:5047   */\n      add\n        /* \"#utility.yul\":5023:5070   */\n      mstore\n        /* \"#utility.yul\":5087:5218   */\n      tag_182\n        /* \"#utility.yul\":5213:5217   */\n      dup2\n        /* \"#utility.yul\":5087:5218   */\n      tag_117\n      jump\t// in\n    tag_182:\n        /* \"#utility.yul\":5079:5218   */\n      swap1\n      pop\n        /* \"#utility.yul\":4806:5225   */\n      swap2\n      swap1\n      pop\n      jump\t// out\n        /* \"#utility.yul\":5231:5411   */\n    tag_118:\n        /* \"#utility.yul\":5279:5356   */\n      0x4e487b7100000000000000000000000000000000000000000000000000000000\n        /* \"#utility.yul\":5276:5277   */\n      0x00\n        /* \"#utility.yul\":5269:5357   */\n      mstore\n        /* \"#utility.yul\":5376:5380   */\n      0x11\n        /* \"#utility.yul\":5373:5374   */\n      0x04\n        /* \"#utility.yul\":5366:5381   */\n      mstore\n        /* \"#utility.yul\":5400:5404   */\n      0x24\n        /* \"#utility.yul\":5397:5398   */\n      0x00\n        /* \"#utility.yul\":5390:5405   */\n      revert\n        /* \"#utility.yul\":5417:5650   */\n    tag_69:\n        /* \"#utility.yul\":5456:5459   */\n      0x00\n        /* \"#utility.yul\":5479:5503   */\n      tag_185\n        /* \"#utility.yul\":5497:5502   */\n      dup3\n        /* \"#utility.yul\":5479:5503   */\n      tag_106\n      jump\t// in\n    tag_185:\n        /* \"#utility.yul\":5470:5503   */\n      swap2\n      pop\n        /* \"#utility.yul\":5525:5591   */\n      0xffffffffffffffffffffffffffffffffffffffffffffffffffffffffffffffff\n        /* \"#utility.yul\":5518:5523   */\n      dup3\n        /* \"#utility.yul\":5515:5592   */\n      sub\n        /* \"#utility.yul\":5512:5615   */\n      tag_186\n      jumpi\n        /* \"#utility.yul\":5595:5613   */\n      tag_187\n      tag_118\n      jump\t// in\n    tag_187:\n        /* \"#utility.yul\":5512:5615   */\n    tag_186:\n        /* \"#utility.yul\":5642:5643   */\n      0x01\n        /* \"#utility.yul\":5635:5640   */\n      dup3\n        /* \"#utility.yul\":5631:5644   */\n      add\n        /* \"#utility.yul\":5624:5644   */\n      swap1\n      pop\n        /* \"#utility.yul\":5417:5650   */\n      swap2\n      swap1\n      pop\n      jump\t// out\n        /* \"#utility.yul\":5656:5847   */\n    tag_71:\n        /* \"#utility.yul\":5696:5699   */\n      0x00\n        /* \"#utility.yul\":5715:5735   */\n      tag_189\n        /* \"#utility.yul\":5733:5734   */\n      dup3\n        /* \"#utility.yul\":5715:5735   */\n      tag_106\n      jump\t// in\n    tag_189:\n        /* \"#utility.yul\":5710:5735   */\n      swap2\n      pop\n        /* \"#utility.yul\":5749:5769   */\n      tag_190\n        /* \"#utility.yul\":5767:5768   */\n      dup4\n        /* \"#utility.yul\":5749:5769   */\n      tag_106\n      jump\t// in\n    tag_190:\n        /* \"#utility.yul\":5744:5769   */\n      swap3\n      pop\n        /* \"#utility.yul\":5792:5793   */\n      dup3\n        /* \"#utility.yul\":5789:5790   */\n      dup3\n        /* \"#utility.yul\":5785:5794   */\n      add\n        /* \"#utility.yul\":5778:5794   */\n      swap1\n      pop\n        /* \"#utility.yul\":5813:5816   */\n      dup1\n        /* \"#utility.yul\":5810:5811   */\n      dup3\n        /* \"#utility.yul\":5807:5817   */\n      gt\n        /* \"#utility.yul\":5804:5840   */\n      iszero\n      tag_191\n      jumpi\n        /* \"#utility.yul\":5820:5838   */\n      tag_192\n      tag_118\n      jump\t// in\n    tag_192:\n        /* \"#utility.yul\":5804:5840   */\n    tag_191:\n        /* \"#utility.yul\":5656:5847   */\n      swap3\n      swap2\n      pop\n      pop\n      jump\t// out\n        /* \"#utility.yul\":5853:6000   */\n    tag_119:\n        /* \"#utility.yul\":5954:5965   */\n      0x00\n        /* \"#utility.yul\":5991:5994   */\n      dup2\n        /* \"#utility.yul\":5976:5994   */\n      swap1\n      pop\n        /* \"#utility.yul\":5853:6000   */\n      swap3\n      swap2\n      pop\n      pop\n      jump\t// out\n        /* \"#utility.yul\":6006:6120   */\n    tag_120:\n      pop\n      jump\t// out\n        /* \"#utility.yul\":6126:6524   */\n    tag_121:\n        /* \"#utility.yul\":6285:6288   */\n      0x00\n        /* \"#utility.yul\":6306:6389   */\n      tag_196\n        /* \"#utility.yul\":6387:6388   */\n      0x00\n        /* \"#utility.yul\":6382:6385   */\n      dup4\n        /* \"#utility.yul\":6306:6389   */\n      tag_119\n      jump\t// in\n    tag_196:\n        /* \"#utility.yul\":6299:6389   */\n      swap2\n      pop\n        /* \"#utility.yul\":6398:6491   */\n      tag_197\n        /* \"#utility.yul\":6487:6490   */\n      dup3\n        /* \"#utility.yul\":6398:6491   */\n      tag_120\n      jump\t// in\n    tag_197:\n        /* \"#utility.yul\":6516:6517   */\n      0x00\n        /* \"#utility.yul\":6511:6514   */\n      dup3\n        /* \"#utility.yul\":6507:6518   */\n      add\n        /* \"#utility.yul\":6500:6518   */\n      swap1\n      pop\n        /* \"#utility.yul\":6126:6524   */\n      swap2\n      swap1\n      pop\n      jump\t// out\n        /* \"#utility.yul\":6530:6909   */\n    tag_80:\n        /* \"#utility.yul\":6714:6717   */\n      0x00\n        /* \"#utility.yul\":6736:6883   */\n      tag_199\n        /* \"#utility.yul\":6879:6882   */\n      dup3\n        /* \"#utility.yul\":6736:6883   */\n      tag_121\n      jump\t// in\n    tag_199:\n        /* \"#utility.yul\":6729:6883   */\n      swap2\n      pop\n        /* \"#utility.yul\":6900:6903   */\n      dup2\n        /* \"#utility.yul\":6893:6903   */\n      swap1\n      pop\n        /* \"#utility.yul\":6530:6909   */\n      swap2\n      swap1\n      pop\n      jump\t// out\n        /* \"#utility.yul\":6915:7080   */\n    tag_122:\n        /* \"#utility.yul\":7055:7072   */\n      0x5472616e73666572206661696c65640000000000000000000000000000000000\n        /* \"#utility.yul\":7051:7052   */\n      0x00\n        /* \"#utility.yul\":7043:7049   */\n      dup3\n        /* \"#utility.yul\":7039:7053   */\n      add\n        /* \"#utility.yul\":7032:7073   */\n      mstore\n        /* \"#utility.yul\":6915:7080   */\n      pop\n      jump\t// out\n        /* \"#utility.yul\":7086:7452   */\n    tag_123:\n        /* \"#utility.yul\":7228:7231   */\n      0x00\n        /* \"#utility.yul\":7249:7316   */\n      tag_202\n        /* \"#utility.yul\":7313:7315   */\n      0x0f\n        /* \"#utility.yul\":7308:7311   */\n      dup4\n        /* \"#utility.yul\":7249:7316   */\n      tag_115\n      jump\t// in\n    tag_202:\n        /* \"#utility.yul\":7242:7316   */\n      swap2\n      pop\n        /* \"#utility.yul\":7325:7418   */\n      tag_203\n        /* \"#utility.yul\":7414:7417   */\n      dup3\n        /* \"#utility.yul\":7325:7418   */\n      tag_122\n      jump\t// in\n    tag_203:\n        /* \"#utility.yul\":7443:7445   */\n      0x20\n        /* \"#utility.yul\":7438:7441   */\n      dup3\n        /* \"#utility.yul\":7434:7446   */\n      add\n        /* \"#utility.yul\":7427:7446   */\n      swap1\n      pop\n        /* \"#utility.yul\":7086:7452   */\n      swap2\n      swap1\n      pop\n      jump\t// out\n        /* \"#utility.yul\":7458:7877   */\n    tag_86:\n        /* \"#utility.yul\":7624:7628   */\n      0x00\n        /* \"#utility.yul\":7662:7664   */\n      0x20\n        /* \"#utility.yul\":7651:7660   */\n      dup3\n        /* \"#utility.yul\":7647:7665   */\n      add\n        /* \"#utility.yul\":7639:7665   */\n      swap1\n      pop\n        /* \"#utility.yul\":7711:7720   */\n      dup2\n        /* \"#utility.yul\":7705:7709   */\n      dup2\n        /* \"#utility.yul\":7701:7721   */\n      sub\n        /* \"#utility.yul\":7697:7698   */\n      0x00\n        /* \"#utility.yul\":7686:7695   */\n      dup4\n        /* \"#utility.yul\":7682:7699   */\n      add\n        /* \"#utility.yul\":7675:7722   */\n      mstore\n        /* \"#utility.yul\":7739:7870   */\n      tag_205\n        /* \"#utility.yul\":7865:7869   */\n      dup2\n        /* \"#utility.yul\":7739:7870   */\n      tag_123\n      jump\t// in\n    tag_205:\n        /* \"#utility.yul\":7731:7870   */\n      swap1\n      pop\n        /* \"#utility.yul\":7458:7877   */\n      swap2\n      swap1\n      pop\n      jump\t// out\n        /* \"#utility.yul\":7883:8077   */\n    tag_97:\n        /* \"#utility.yul\":7923:7927   */\n      0x00\n        /* \"#utility.yul\":7943:7963   */\n      tag_207\n        /* \"#utility.yul\":7961:7962   */\n      dup3\n        /* \"#utility.yul\":7943:7963   */\n      tag_106\n      jump\t// in\n    tag_207:\n        /* \"#utility.yul\":7938:7963   */\n      swap2\n      pop\n        /* \"#utility.yul\":7977:7997   */\n      tag_208\n        /* \"#utility.yul\":7995:7996   */\n      dup4\n        /* \"#utility.yul\":7977:7997   */\n      tag_106\n      jump\t// in\n    tag_208:\n        /* \"#utility.yul\":7972:7997   */\n      swap3\n      pop\n        /* \"#utility.yul\":8021:8022   */\n      dup3\n        /* \"#utility.yul\":8018:8019   */\n      dup3\n        /* \"#utility.yul\":8014:8023   */\n      sub\n        /* \"#utility.yul\":8006:8023   */\n      swap1\n      pop\n        /* \"#utility.yul\":8045:8046   */\n      dup2\n        /* \"#utility.yul\":8039:8043   */\n      dup2\n        /* \"#utility.yul\":8036:8047   */\n      gt\n        /* \"#utility.yul\":8033:8070   */\n      iszero\n      tag_209\n      jumpi\n        /* \"#utility.yul\":8050:8068   */\n      tag_210\n      tag_118\n      jump\t// in\n    tag_210:\n        /* \"#utility.yul\":8033:8070   */\n    tag_209:\n        /* \"#utility.yul\":7883:8077   */\n      swap3\n      swap2\n      pop\n      pop\n      jump\t// out\n        /* \"#utility.yul\":8083:8162   */\n    tag_124:\n        /* \"#utility.yul\":8122:8129   */\n      0x00\n        /* \"#utility.yul\":8151:8156   */\n      dup2\n        /* \"#utility.yul\":8140:8156   */\n      swap1\n      pop\n        /* \"#utility.yul\":8083:8162   */\n      swap2\n      swap1\n      pop\n      jump\t// out\n        /* \"#utility.yul\":8168:8325   */\n    tag_125:\n        /* \"#utility.yul\":8273:8318   */\n      tag_213\n        /* \"#utility.yul\":8293:8317   */\n      tag_214\n        /* \"#utility.yul\":8311:8316   */\n      dup3\n        /* \"#utility.yul\":8293:8317   */\n      tag_106\n      jump\t// in\n    tag_214:\n        /* \"#utility.yul\":8273:8318   */\n      tag_124\n      jump\t// in\n    tag_213:\n        /* \"#utility.yul\":8268:8271   */\n      dup3\n        /* \"#utility.yul\":8261:8319   */\n      mstore\n        /* \"#utility.yul\":8168:8325   */\n      pop\n      pop\n      jump\t// out\n        /* \"#utility.yul\":8331:8408   */\n    tag_126:\n        /* \"#utility.yul\":8368:8375   */\n      0x00\n        /* \"#utility.yul\":8397:8402   */\n      dup2\n        /* \"#utility.yul\":8386:8402   */\n      swap1\n      pop\n        /* \"#utility.yul\":8331:8408   */\n      swap2\n      swap1\n      pop\n      jump\t// out\n        /* \"#utility.yul\":8414:8493   */\n    tag_127:\n        /* \"#utility.yul\":8453:8460   */\n      0x00\n        /* \"#utility.yul\":8482:8487   */\n      dup2\n        /* \"#utility.yul\":8471:8487   */\n      swap1\n      pop\n        /* \"#utility.yul\":8414:8493   */\n      swap2\n      swap1\n      pop\n      jump\t// out\n        /* \"#utility.yul\":8499:8656   */\n    tag_128:\n        /* \"#utility.yul\":8604:8649   */\n      tag_218\n        /* \"#utility.yul\":8624:8648   */\n      tag_219\n        /* \"#utility.yul\":8642:8647   */\n      dup3\n        /* \"#utility.yul\":8624:8648   */\n      tag_126\n      jump\t// in\n    tag_219:\n        /* \"#utility.yul\":8604:8649   */\n      tag_127\n      jump\t// in\n    tag_218:\n        /* \"#utility.yul\":8599:8602   */\n      dup3\n        /* \"#utility.yul\":8592:8650   */\n      mstore\n        /* \"#utility.yul\":8499:8656   */\n      pop\n      pop\n      jump\t// out\n        /* \"#utility.yul\":8662:9200   */\n    tag_99:\n        /* \"#utility.yul\":8830:8833   */\n      0x00\n        /* \"#utility.yul\":8845:8920   */\n      tag_221\n        /* \"#utility.yul\":8916:8919   */\n      dup3\n        /* \"#utility.yul\":8907:8913   */\n      dup7\n        /* \"#utility.yul\":8845:8920   */\n      tag_125\n      jump\t// in\n    tag_221:\n        /* \"#utility.yul\":8945:8947   */\n      0x20\n        /* \"#utility.yul\":8940:8943   */\n      dup3\n        /* \"#utility.yul\":8936:8948   */\n      add\n        /* \"#utility.yul\":8929:8948   */\n      swap2\n      pop\n        /* \"#utility.yul\":8958:9033   */\n      tag_222\n        /* \"#utility.yul\":9029:9032   */\n      dup3\n        /* \"#utility.yul\":9020:9026   */\n      dup6\n        /* \"#utility.yul\":8958:9033   */\n      tag_128\n      jump\t// in\n    tag_222:\n        /* \"#utility.yul\":9058:9060   */\n      0x20\n        /* \"#utility.yul\":9053:9056   */\n      dup3\n        /* \"#utility.yul\":9049:9061   */\n      add\n        /* \"#utility.yul\":9042:9061   */\n      swap2\n      pop\n        /* \"#utility.yul\":9071:9146   */\n      tag_223\n        /* \"#utility.yul\":9142:9145   */\n      dup3\n        /* \"#utility.yul\":9133:9139   */\n      dup5\n        /* \"#utility.yul\":9071:9146   */\n      tag_125\n      jump\t// in\n    tag_223:\n        /* \"#utility.yul\":9171:9173   */\n      0x20\n        /* \"#utility.yul\":9166:9169   */\n      dup3\n        /* \"#utility.yul\":9162:9174   */\n      add\n        /* \"#utility.yul\":9155:9174   */\n      swap2\n      pop\n        /* \"#utility.yul\":9191:9194   */\n      dup2\n        /* \"#utility.yul\":9184:9194   */\n      swap1\n      pop\n        /* \"#utility.yul\":8662:9200   */\n      swap5\n      swap4\n      pop\n      pop\n      pop\n      pop\n      jump\t// out\n        /* \"#utility.yul\":9206:9386   */\n    tag_129:\n        /* \"#utility.yul\":9254:9331   */\n      0x4e487b7100000000000000000000000000000000000000000000000000000000\n        /* \"#utility.yul\":9251:9252   */\n      0x00\n        /* \"#utility.yul\":9244:9332   */\n      mstore\n        /* \"#utility.yul\":9351:9355   */\n      0x12\n        /* \"#utility.yul\":9348:9349   */\n      0x04\n        /* \"#utility.yul\":9341:9356   */\n      mstore\n        /* \"#utility.yul\":9375:9379   */\n      0x24\n        /* \"#utility.yul\":9372:9373   */\n      0x00\n        /* \"#utility.yul\":9365:9380   */\n      revert\n        /* \"#utility.yul\":9392:9568   */\n    tag_101:\n        /* \"#utility.yul\":9424:9425   */\n      0x00\n        /* \"#utility.yul\":9441:9461   */\n      tag_226\n        /* \"#utility.yul\":9459:9460   */\n      dup3\n        /* \"#utility.yul\":9441:9461   */\n      tag_106\n      jump\t// in\n    tag_226:\n        /* \"#utility.yul\":9436:9461   */\n      swap2\n      pop\n        /* \"#utility.yul\":9475:9495   */\n      tag_227\n        /* \"#utility.yul\":9493:9494   */\n      dup4\n        /* \"#utility.yul\":9475:9495   */\n      tag_106\n      jump\t// in\n    tag_227:\n        /* \"#utility.yul\":9470:9495   */\n      swap3\n      pop\n        /* \"#utility.yul\":9514:9515   */\n      dup3\n        /* \"#utility.yul\":9504:9539   */\n      tag_228\n      jumpi\n        /* \"#utility.yul\":9519:9537   */\n      tag_229\n      tag_129\n      jump\t// in\n    tag_229:\n        /* \"#utility.yul\":9504:9539   */\n    tag_228:\n        /* \"#utility.yul\":9560:9561   */\n      dup3\n        /* \"#utility.yul\":9557:9558   */\n      dup3\n        /* \"#utility.yul\":9553:9562   */\n      mod\n        /* \"#utility.yul\":9548:9562   */\n      swap1\n      pop\n        /* \"#utility.yul\":9392:9568   */\n      swap3\n      swap2\n      pop\n      pop\n      jump\t// out\n\n    auxdata: 0xa2646970667358221220842d255906d9d917145ab05631e7975b3c6d5b50212ef84ffd2b7a5b1645ce2464736f6c634300081a0033\n}\n",
				"bytecode": {
					"linkReferences": {},
					"object": "6080604052348015600e575f80fd5b50335f806101000a81548173ffffffffffffffffffffffffffffffffffffffff021916908373ffffffffffffffffffffffffffffffffffffffff1602179055505f60018190555061113f806100625f395ff3fe608060405260043610610090575f3560e01c80637b154140116100585780637b1541401461019e5780638da5cb5b146101c65780638dd8c56d146101f0578063a374e43f14610218578063f737d21d1461025657610090565b80631398e0761461009457806325595ce5146100d757806367dd74ca146101015780636b0d03291461011d57806376b3c8a81461015b575b5f80fd5b34801561009f575f80fd5b506100ba60048036038101906100b59190610c78565b61027e565b6040516100ce989796959493929190610d0b565b60405180910390f35b3480156100e2575f80fd5b506100eb6102fa565b6040516100f89190610d87565b60405180910390f35b61011b60048036038101906101169190610c78565b610300565b005b348015610128575f80fd5b50610143600480360381019061013e9190610da0565b610526565b60405161015293929190610dde565b60405180910390f35b348015610166575f80fd5b50610181600480360381019061017c9190610c78565b610587565b604051610195989796959493929190610d0b565b60405180910390f35b3480156101a9575f80fd5b506101c460048036038101906101bf9190610da0565b61061e565b005b3480156101d1575f80fd5b506101da6108cf565b6040516101e79190610e13565b60405180910390f35b3480156101fb575f80fd5b5061021660048036038101906102119190610c78565b6108f2565b005b348015610223575f80fd5b5061023e60048036038101906102399190610da0565b610a09565b60405161024d93929190610dde565b60405180910390f35b348015610261575f80fd5b5061027c60048036038101906102779190610c78565b610a59565b005b6002602052805f5260405f205f91509050805f015490806001015f9054906101000a900473ffffffffffffffffffffffffffffffffffffffff1690806002015490806003015490806004015490806005015f9054906101000a900460ff16908060050160019054906101000a900460ff16908060060154905088565b60015481565b5f60025f8381526020019081526020015f2090505f73ffffffffffffffffffffffffffffffffffffffff16816001015f9054906101000a900473ffffffffffffffffffffffffffffffffffffffff1673ffffffffffffffffffffffffffffffffffffffff16036103a5576040517f08c379a000000000000000000000000000000000000000000000000000000000815260040161039c90610e86565b60405180910390fd5b806005015f9054906101000a900460ff16156103ed576040517fd9b532e600000000000000000000000000000000000000000000000000000000815260040160405180910390fd5b8060020154341461042a576040517f356680b700000000000000000000000000000000000000000000000000000000815260040160405180910390fd5b806003015f81548092919061043e90610ed1565b91905055505f816003015490505f60035f8581526020019081526020015f205f8381526020019081526020015f20905081815f018190555083816001018190555033816002015f6101000a81548173ffffffffffffffffffffffffffffffffffffffff021916908373ffffffffffffffffffffffffffffffffffffffff16021790555034836006015f8282546104d49190610f18565b925050819055503373ffffffffffffffffffffffffffffffffffffffff1682857f94c5953e15f54d38b82a662bdd5739fc91af3a23d3ef7e67269dfaeee71a813c60405160405180910390a450505050565b5f805f8060035f8781526020019081526020015f205f8681526020019081526020015f209050805f01548160010154826002015f9054906101000a900473ffffffffffffffffffffffffffffffffffffffff16935093509350509250925092565b5f805f805f805f805f60025f8b81526020019081526020015f209050805f0154816001015f9054906101000a900473ffffffffffffffffffffffffffffffffffffffff16826002015483600301548460040154856005015f9054906101000a900460ff168660050160019054906101000a900460ff1687600601549850985098509850985098509850985050919395975091939597565b5f60025f8481526020019081526020015f2090505f60035f8581526020019081526020015f205f8481526020019081526020015f209050816005015f9054906101000a900460ff1661069c576040517fdc2cff2300000000000000000000000000000000000000000000000000000000815260040160405180910390fd5b8160050160019054906101000a900460ff16156106e5576040517f646cf55800000000000000000000000000000000000000000000000000000000815260040160405180910390fd5b82826004015414610722576040517f93a5f3c700000000000000000000000000000000000000000000000000000000815260040160405180910390fd5b3373ffffffffffffffffffffffffffffffffffffffff16816002015f9054906101000a900473ffffffffffffffffffffffffffffffffffffffff1673ffffffffffffffffffffffffffffffffffffffff16146107aa576040517fea8e4eb500000000000000000000000000000000000000000000000000000000815260040160405180910390fd5b60018260050160016101000a81548160ff0219169083151502179055505f826006015490505f3373ffffffffffffffffffffffffffffffffffffffff16826040516107f490610f78565b5f6040518083038185875af1925050503d805f811461082e576040519150601f19603f3d011682016040523d82523d5f602084013e610833565b606091505b5050905080610877576040517f08c379a000000000000000000000000000000000000000000000000000000000815260040161086e90610fd6565b60405180910390fd5b3373ffffffffffffffffffffffffffffffffffffffff1685877f608c8c3c6a3d40f40b96fbee44f9b9aee57a39c2fcb8bb0f59d8892b2d5492a2856040516108bf9190610d87565b60405180910390a4505050505050565b5f8054906101000a900473ffffffffffffffffffffffffffffffffffffffff1681565b60015f81548092919061090490610ed1565b91905055505f60025f60015481526020019081526020015f209050600154815f018190555033816001015f6101000a81548173ffffffffffffffffffffffffffffffffffffffff021916908373ffffffffffffffffffffffffffffffffffffffff1602179055508181600201819055505f81600301819055505f816005015f6101000a81548160ff0219169083151502179055505f8160050160016101000a81548160ff0219169083151502179055503373ffffffffffffffffffffffffffffffffffffffff166001547f17c4235e5445edc74f9f07d8c362f1874338559a87e5f25978a39ba4b662e1f5846040516109fd9190610d87565b60405180910390a35050565b6003602052815f5260405f20602052805f5260405f205f9150915050805f015490806001015490806002015f9054906101000a900473ffffffffffffffffffffffffffffffffffffffff16905083565b803373ffffffffffffffffffffffffffffffffffffffff1660025f8381526020019081526020015f206001015f9054906101000a900473ffffffffffffffffffffffffffffffffffffffff1673ffffffffffffffffffffffffffffffffffffffff1614610af2576040517fea8e4eb500000000000000000000000000000000000000000000000000000000815260040160405180910390fd5b5f60025f8481526020019081526020015f209050806005015f9054906101000a900460ff1615610b4e576040517fd9b532e600000000000000000000000000000000000000000000000000000000815260040160405180910390fd5b5f816003015403610b8b576040517f66f3ef9b00000000000000000000000000000000000000000000000000000000815260040160405180910390fd5b5f42600143610b9a9190610ff4565b4085604051602001610bae93929190611070565b604051602081830303815290604052805190602001205f1c90505f6001836003015483610bdb91906110d9565b610be59190610f18565b90508083600401819055506001836005015f6101000a81548160ff02191690831515021790555080857fca1dae47f36d2b335e85f1cb82f7d34f0a5ea31328e3ab461cbd70219ec90c9e60405160405180910390a35050505050565b5f80fd5b5f819050919050565b610c5781610c45565b8114610c61575f80fd5b50565b5f81359050610c7281610c4e565b92915050565b5f60208284031215610c8d57610c8c610c41565b5b5f610c9a84828501610c64565b91505092915050565b610cac81610c45565b82525050565b5f73ffffffffffffffffffffffffffffffffffffffff82169050919050565b5f610cdb82610cb2565b9050919050565b610ceb81610cd1565b82525050565b5f8115159050919050565b610d0581610cf1565b82525050565b5f61010082019050610d1f5f83018b610ca3565b610d2c602083018a610ce2565b610d396040830189610ca3565b610d466060830188610ca3565b610d536080830187610ca3565b610d6060a0830186610cfc565b610d6d60c0830185610cfc565b610d7a60e0830184610ca3565b9998505050505050505050565b5f602082019050610d9a5f830184610ca3565b92915050565b5f8060408385031215610db657610db5610c41565b5b5f610dc385828601610c64565b9250506020610dd485828601610c64565b9150509250929050565b5f606082019050610df15f830186610ca3565b610dfe6020830185610ca3565b610e0b6040830184610ce2565b949350505050565b5f602082019050610e265f830184610ce2565b92915050565b5f82825260208201905092915050565b7f4c6f747465727920646f6573206e6f74206578697374000000000000000000005f82015250565b5f610e70601683610e2c565b9150610e7b82610e3c565b602082019050919050565b5f6020820190508181035f830152610e9d81610e64565b9050919050565b7f4e487b71000000000000000000000000000000000000000000000000000000005f52601160045260245ffd5b5f610edb82610c45565b91507fffffffffffffffffffffffffffffffffffffffffffffffffffffffffffffffff8203610f0d57610f0c610ea4565b5b600182019050919050565b5f610f2282610c45565b9150610f2d83610c45565b9250828201905080821115610f4557610f44610ea4565b5b92915050565b5f81905092915050565b50565b5f610f635f83610f4b565b9150610f6e82610f55565b5f82019050919050565b5f610f8282610f58565b9150819050919050565b7f5472616e73666572206661696c656400000000000000000000000000000000005f82015250565b5f610fc0600f83610e2c565b9150610fcb82610f8c565b602082019050919050565b5f6020820190508181035f830152610fed81610fb4565b9050919050565b5f610ffe82610c45565b915061100983610c45565b925082820390508181111561102157611020610ea4565b5b92915050565b5f819050919050565b61104161103c82610c45565b611027565b82525050565b5f819050919050565b5f819050919050565b61106a61106582611047565b611050565b82525050565b5f61107b8286611030565b60208201915061108b8285611059565b60208201915061109b8284611030565b602082019150819050949350505050565b7f4e487b71000000000000000000000000000000000000000000000000000000005f52601260045260245ffd5b5f6110e382610c45565b91506110ee83610c45565b9250826110fe576110fd6110ac565b5b82820690509291505056fea2646970667358221220842d255906d9d917145ab05631e7975b3c6d5b50212ef84ffd2b7a5b1645ce2464736f6c634300081a0033",
					"opcodes": "PUSH1 0x80 PUSH1 0x40 MSTORE CALLVALUE DUP1 ISZERO PUSH1 0xE JUMPI PUSH0 DUP1 REVERT JUMPDEST POP CALLER PUSH0 DUP1 PUSH2 0x100 EXP DUP2 SLOAD DUP2 PUSH20 0xFFFFFFFFFFFFFFFFFFFFFFFFFFFFFFFFFFFFFFFF MUL NOT AND SWAP1 DUP4 PUSH20 0xFFFFFFFFFFFFFFFFFFFFFFFFFFFFFFFFFFFFFFFF AND MUL OR SWAP1 SSTORE POP PUSH0 PUSH1 0x1 DUP2 SWAP1 SSTORE POP PUSH2 0x113F DUP1 PUSH2 0x62 PUSH0 CODECOPY PUSH0 RETURN INVALID PUSH1 0x80 PUSH1 0x40 MSTORE PUSH1 0x4 CALLDATASIZE LT PUSH2 0x90 JUMPI PUSH0 CALLDATALOAD PUSH1 0xE0 SHR DUP1 PUSH4 0x7B154140 GT PUSH2 0x58 JUMPI DUP1 PUSH4 0x7B154140 EQ PUSH2 0x19E JUMPI DUP1 PUSH4 0x8DA5CB5B EQ PUSH2 0x1C6 JUMPI DUP1 PUSH4 0x8DD8C56D EQ PUSH2 0x1F0 JUMPI DUP1 PUSH4 0xA374E43F EQ PUSH2 0x218 JUMPI DUP1 PUSH4 0xF737D21D EQ PUSH2 0x256 JUMPI PUSH2 0x90 JUMP JUMPDEST DUP1 PUSH4 0x1398E076 EQ PUSH2 0x94 JUMPI DUP1 PUSH4 0x25595CE5 EQ PUSH2 0xD7 JUMPI DUP1 PUSH4 0x67DD74CA EQ PUSH2 0x101 JUMPI DUP1 PUSH4 0x6B0D0329 EQ PUSH2 0x11D JUMPI DUP1 PUSH4 0x76B3C8A8 EQ PUSH2 0x15B JUMPI JUMPDEST PUSH0 DUP1 REVERT JUMPDEST CALLVALUE DUP1 ISZERO PUSH2 0x9F JUMPI PUSH0 DUP1 REVERT JUMPDEST POP PUSH2 0xBA PUSH1 0x4 DUP1 CALLDATASIZE SUB DUP2 ADD SWAP1 PUSH2 0xB5 SWAP2 SWAP1 PUSH2 0xC78 JUMP JUMPDEST PUSH2 0x27E JUMP JUMPDEST PUSH1 0x40 MLOAD PUSH2 0xCE SWAP9 SWAP8 SWAP7 SWAP6 SWAP5 SWAP4 SWAP3 SWAP2 SWAP1 PUSH2 0xD0B JUMP JUMPDEST PUSH1 0x40 MLOAD DUP1 SWAP2 SUB SWAP1 RETURN JUMPDEST CALLVALUE DUP1 ISZERO PUSH2 0xE2 JUMPI PUSH0 DUP1 REVERT JUMPDEST POP PUSH2 0xEB PUSH2 0x2FA JUMP JUMPDEST PUSH1 0x40 MLOAD PUSH2 0xF8 SWAP2 SWAP1 PUSH2 0xD87 JUMP JUMPDEST PUSH1 0x40 MLOAD DUP1 SWAP2 SUB SWAP1 RETURN JUMPDEST PUSH2 0x11B PUSH1 0x4 DUP1 CALLDATASIZE SUB DUP2 ADD SWAP1 PUSH2 0x116 SWAP2 SWAP1 PUSH2 0xC78 JUMP JUMPDEST PUSH2 0x300 JUMP JUMPDEST STOP JUMPDEST CALLVALUE DUP1 ISZERO PUSH2 0x128 JUMPI PUSH0 DUP1 REVERT JUMPDEST POP PUSH2 0x143 PUSH1 0x4 DUP1 CALLDATASIZE SUB DUP2 ADD SWAP1 PUSH2 0x13E SWAP2 SWAP1 PUSH2 0xDA0 JUMP JUMPDEST PUSH2 0x526 JUMP JUMPDEST PUSH1 0x40 MLOAD PUSH2 0x152 SWAP4 SWAP3 SWAP2 SWAP1 PUSH2 0xDDE JUMP JUMPDEST PUSH1 0x40 MLOAD DUP1 SWAP2 SUB SWAP1 RETURN JUMPDEST CALLVALUE DUP1 ISZERO PUSH2 0x166 JUMPI PUSH0 DUP1 REVERT JUMPDEST POP PUSH2 0x181 PUSH1 0x4 DUP1 CALLDATASIZE SUB DUP2 ADD SWAP1 PUSH2 0x17C SWAP2 SWAP1 PUSH2 0xC78 JUMP JUMPDEST PUSH2 0x587 JUMP JUMPDEST PUSH1 0x40 MLOAD PUSH2 0x195 SWAP9 SWAP8 SWAP7 SWAP6 SWAP5 SWAP4 SWAP3 SWAP2 SWAP1 PUSH2 0xD0B JUMP JUMPDEST PUSH1 0x40 MLOAD DUP1 SWAP2 SUB SWAP1 RETURN JUMPDEST CALLVALUE DUP1 ISZERO PUSH2 0x1A9 JUMPI PUSH0 DUP1 REVERT JUMPDEST POP PUSH2 0x1C4 PUSH1 0x4 DUP1 CALLDATASIZE SUB DUP2 ADD SWAP1 PUSH2 0x1BF SWAP2 SWAP1 PUSH2 0xDA0 JUMP JUMPDEST PUSH2 0x61E JUMP JUMPDEST STOP JUMPDEST CALLVALUE DUP1 ISZERO PUSH2 0x1D1 JUMPI PUSH0 DUP1 REVERT JUMPDEST POP PUSH2 0x1DA PUSH2 0x8CF JUMP JUMPDEST PUSH1 0x40 MLOAD PUSH2 0x1E7 SWAP2 SWAP1 PUSH2 0xE13 JUMP JUMPDEST PUSH1 0x40 MLOAD DUP1 SWAP2 SUB SWAP1 RETURN JUMPDEST CALLVALUE DUP1 ISZERO PUSH2 0x1FB JUMPI PUSH0 DUP1 REVERT JUMPDEST POP PUSH2 0x216 PUSH1 0x4 DUP1 CALLDATASIZE SUB DUP2 ADD SWAP1 PUSH2 0x211 SWAP2 SWAP1 PUSH2 0xC78 JUMP JUMPDEST PUSH2 0x8F2 JUMP JUMPDEST STOP JUMPDEST CALLVALUE DUP1 ISZERO PUSH2 0x223 JUMPI PUSH0 DUP1 REVERT JUMPDEST POP PUSH2 0x23E PUSH1 0x4 DUP1 CALLDATASIZE SUB DUP2 ADD SWAP1 PUSH2 0x239 SWAP2 SWAP1 PUSH2 0xDA0 JUMP JUMPDEST PUSH2 0xA09 JUMP JUMPDEST PUSH1 0x40 MLOAD PUSH2 0x24D SWAP4 SWAP3 SWAP2 SWAP1 PUSH2 0xDDE JUMP JUMPDEST PUSH1 0x40 MLOAD DUP1 SWAP2 SUB SWAP1 RETURN JUMPDEST CALLVALUE DUP1 ISZERO PUSH2 0x261 JUMPI PUSH0 DUP1 REVERT JUMPDEST POP PUSH2 0x27C PUSH1 0x4 DUP1 CALLDATASIZE SUB DUP2 ADD SWAP1 PUSH2 0x277 SWAP2 SWAP1 PUSH2 0xC78 JUMP JUMPDEST PUSH2 0xA59 JUMP JUMPDEST STOP JUMPDEST PUSH1 0x2 PUSH1 0x20 MSTORE DUP1 PUSH0 MSTORE PUSH1 0x40 PUSH0 KECCAK256 PUSH0 SWAP2 POP SWAP1 POP DUP1 PUSH0 ADD SLOAD SWAP1 DUP1 PUSH1 0x1 ADD PUSH0 SWAP1 SLOAD SWAP1 PUSH2 0x100 EXP SWAP1 DIV PUSH20 0xFFFFFFFFFFFFFFFFFFFFFFFFFFFFFFFFFFFFFFFF AND SWAP1 DUP1 PUSH1 0x2 ADD SLOAD SWAP1 DUP1 PUSH1 0x3 ADD SLOAD SWAP1 DUP1 PUSH1 0x4 ADD SLOAD SWAP1 DUP1 PUSH1 0x5 ADD PUSH0 SWAP1 SLOAD SWAP1 PUSH2 0x100 EXP SWAP1 DIV PUSH1 0xFF AND SWAP1 DUP1 PUSH1 0x5 ADD PUSH1 0x1 SWAP1 SLOAD SWAP1 PUSH2 0x100 EXP SWAP1 DIV PUSH1 0xFF AND SWAP1 DUP1 PUSH1 0x6 ADD SLOAD SWAP1 POP DUP9 JUMP JUMPDEST PUSH1 0x1 SLOAD DUP2 JUMP JUMPDEST PUSH0 PUSH1 0x2 PUSH0 DUP4 DUP2 MSTORE PUSH1 0x20 ADD SWAP1 DUP2 MSTORE PUSH1 0x20 ADD PUSH0 KECCAK256 SWAP1 POP PUSH0 PUSH20 0xFFFFFFFFFFFFFFFFFFFFFFFFFFFFFFFFFFFFFFFF AND DUP2 PUSH1 0x1 ADD PUSH0 SWAP1 SLOAD SWAP1 PUSH2 0x100 EXP SWAP1 DIV PUSH20 0xFFFFFFFFFFFFFFFFFFFFFFFFFFFFFFFFFFFFFFFF AND PUSH20 0xFFFFFFFFFFFFFFFFFFFFFFFFFFFFFFFFFFFFFFFF AND SUB PUSH2 0x3A5 JUMPI PUSH1 0x40 MLOAD PUSH32 0x8C379A000000000000000000000000000000000000000000000000000000000 DUP2 MSTORE PUSH1 0x4 ADD PUSH2 0x39C SWAP1 PUSH2 0xE86 JUMP JUMPDEST PUSH1 0x40 MLOAD DUP1 SWAP2 SUB SWAP1 REVERT JUMPDEST DUP1 PUSH1 0x5 ADD PUSH0 SWAP1 SLOAD SWAP1 PUSH2 0x100 EXP SWAP1 DIV PUSH1 0xFF AND ISZERO PUSH2 0x3ED JUMPI PUSH1 0x40 MLOAD PUSH32 0xD9B532E600000000000000000000000000000000000000000000000000000000 DUP2 MSTORE PUSH1 0x4 ADD PUSH1 0x40 MLOAD DUP1 SWAP2 SUB SWAP1 REVERT JUMPDEST DUP1 PUSH1 0x2 ADD SLOAD CALLVALUE EQ PUSH2 0x42A JUMPI PUSH1 0x40 MLOAD PUSH32 0x356680B700000000000000000000000000000000000000000000000000000000 DUP2 MSTORE PUSH1 0x4 ADD PUSH1 0x40 MLOAD DUP1 SWAP2 SUB SWAP1 REVERT JUMPDEST DUP1 PUSH1 0x3 ADD PUSH0 DUP2 SLOAD DUP1 SWAP3 SWAP2 SWAP1 PUSH2 0x43E SWAP1 PUSH2 0xED1 JUMP JUMPDEST SWAP2 SWAP1 POP SSTORE POP PUSH0 DUP2 PUSH1 0x3 ADD SLOAD SWAP1 POP PUSH0 PUSH1 0x3 PUSH0 DUP6 DUP2 MSTORE PUSH1 0x20 ADD SWAP1 DUP2 MSTORE PUSH1 0x20 ADD PUSH0 KECCAK256 PUSH0 DUP4 DUP2 MSTORE PUSH1 0x20 ADD SWAP1 DUP2 MSTORE PUSH1 0x20 ADD PUSH0 KECCAK256 SWAP1 POP DUP2 DUP2 PUSH0 ADD DUP2 SWAP1 SSTORE POP DUP4 DUP2 PUSH1 0x1 ADD DUP2 SWAP1 SSTORE POP CALLER DUP2 PUSH1 0x2 ADD PUSH0 PUSH2 0x100 EXP DUP2 SLOAD DUP2 PUSH20 0xFFFFFFFFFFFFFFFFFFFFFFFFFFFFFFFFFFFFFFFF MUL NOT AND SWAP1 DUP4 PUSH20 0xFFFFFFFFFFFFFFFFFFFFFFFFFFFFFFFFFFFFFFFF AND MUL OR SWAP1 SSTORE POP CALLVALUE DUP4 PUSH1 0x6 ADD PUSH0 DUP3 DUP3 SLOAD PUSH2 0x4D4 SWAP2 SWAP1 PUSH2 0xF18 JUMP JUMPDEST SWAP3 POP POP DUP2 SWAP1 SSTORE POP CALLER PUSH20 0xFFFFFFFFFFFFFFFFFFFFFFFFFFFFFFFFFFFFFFFF AND DUP3 DUP6 PUSH32 0x94C5953E15F54D38B82A662BDD5739FC91AF3A23D3EF7E67269DFAEEE71A813C PUSH1 0x40 MLOAD PUSH1 0x40 MLOAD DUP1 SWAP2 SUB SWAP1 LOG4 POP POP POP POP JUMP JUMPDEST PUSH0 DUP1 PUSH0 DUP1 PUSH1 0x3 PUSH0 DUP8 DUP2 MSTORE PUSH1 0x20 ADD SWAP1 DUP2 MSTORE PUSH1 0x20 ADD PUSH0 KECCAK256 PUSH0 DUP7 DUP2 MSTORE PUSH1 0x20 ADD SWAP1 DUP2 MSTORE PUSH1 0x20 ADD PUSH0 KECCAK256 SWAP1 POP DUP1 PUSH0 ADD SLOAD DUP2 PUSH1 0x1 ADD SLOAD DUP3 PUSH1 0x2 ADD PUSH0 SWAP1 SLOAD SWAP1 PUSH2 0x100 EXP SWAP1 DIV PUSH20 0xFFFFFFFFFFFFFFFFFFFFFFFFFFFFFFFFFFFFFFFF AND SWAP4 POP SWAP4 POP SWAP4 POP POP SWAP3 POP SWAP3 POP SWAP3 JUMP JUMPDEST PUSH0 DUP1 PUSH0 DUP1 PUSH0 DUP1 PUSH0 DUP1 PUSH0 PUSH1 0x2 PUSH0 DUP12 DUP2 MSTORE PUSH1 0x20 ADD SWAP1 DUP2 MSTORE PUSH1 0x20 ADD PUSH0 KECCAK256 SWAP1 POP DUP1 PUSH0 ADD SLOAD DUP2 PUSH1 0x1 ADD PUSH0 SWAP1 SLOAD SWAP1 PUSH2 0x100 EXP SWAP1 DIV PUSH20 0xFFFFFFFFFFFFFFFFFFFFFFFFFFFFFFFFFFFFFFFF AND DUP3 PUSH1 0x2 ADD SLOAD DUP4 PUSH1 0x3 ADD SLOAD DUP5 PUSH1 0x4 ADD SLOAD DUP6 PUSH1 0x5 ADD PUSH0 SWAP1 SLOAD SWAP1 PUSH2 0x100 EXP SWAP1 DIV PUSH1 0xFF AND DUP7 PUSH1 0x5 ADD PUSH1 0x1 SWAP1 SLOAD SWAP1 PUSH2 0x100 EXP SWAP1 DIV PUSH1 0xFF AND DUP8 PUSH1 0x6 ADD SLOAD SWAP9 POP SWAP9 POP SWAP9 POP SWAP9 POP SWAP9 POP SWAP9 POP SWAP9 POP SWAP9 POP POP SWAP2 SWAP4 SWAP6 SWAP8 POP SWAP2 SWAP4 SWAP6 SWAP8 JUMP JUMPDEST PUSH0 PUSH1 0x2 PUSH0 DUP5 DUP2 MSTORE PUSH1 0x20 ADD SWAP1 DUP2 MSTORE PUSH1 0x20 ADD PUSH0 KECCAK256 SWAP1 POP PUSH0 PUSH1 0x3 PUSH0 DUP6 DUP2 MSTORE PUSH1 0x20 ADD SWAP1 DUP2 MSTORE PUSH1 0x20 ADD PUSH0 KECCAK256 PUSH0 DUP5 DUP2 MSTORE PUSH1 0x20 ADD SWAP1 DUP2 MSTORE PUSH1 0x20 ADD PUSH0 KECCAK256 SWAP1 POP DUP2 PUSH1 0x5 ADD PUSH0 SWAP1 SLOAD SWAP1 PUSH2 0x100 EXP SWAP1 DIV PUSH1 0xFF AND PUSH2 0x69C JUMPI PUSH1 0x40 MLOAD PUSH32 0xDC2CFF2300000000000000000000000000000000000000000000000000000000 DUP2 MSTORE PUSH1 0x4 ADD PUSH1 0x40 MLOAD DUP1 SWAP2 SUB SWAP1 REVERT JUMPDEST DUP2 PUSH1 0x5 ADD PUSH1 0x1 SWAP1 SLOAD SWAP1 PUSH2 0x100 EXP SWAP1 DIV PUSH1 0xFF AND ISZERO PUSH2 0x6E5 JUMPI PUSH1 0x40 MLOAD PUSH32 0x646CF55800000000000000000000000000000000000000000000000000000000 DUP2 MSTORE PUSH1 0x4 ADD PUSH1 0x40 MLOAD DUP1 SWAP2 SUB SWAP1 REVERT JUMPDEST DUP3 DUP3 PUSH1 0x4 ADD SLOAD EQ PUSH2 0x722 JUMPI PUSH1 0x40 MLOAD PUSH32 0x93A5F3C700000000000000000000000000000000000000000000000000000000 DUP2 MSTORE PUSH1 0x4 ADD PUSH1 0x40 MLOAD DUP1 SWAP2 SUB SWAP1 REVERT JUMPDEST CALLER PUSH20 0xFFFFFFFFFFFFFFFFFFFFFFFFFFFFFFFFFFFFFFFF AND DUP2 PUSH1 0x2 ADD PUSH0 SWAP1 SLOAD SWAP1 PUSH2 0x100 EXP SWAP1 DIV PUSH20 0xFFFFFFFFFFFFFFFFFFFFFFFFFFFFFFFFFFFFFFFF AND PUSH20 0xFFFFFFFFFFFFFFFFFFFFFFFFFFFFFFFFFFFFFFFF AND EQ PUSH2 0x7AA JUMPI PUSH1 0x40 MLOAD PUSH32 0xEA8E4EB500000000000000000000000000000000000000000000000000000000 DUP2 MSTORE PUSH1 0x4 ADD PUSH1 0x40 MLOAD DUP1 SWAP2 SUB SWAP1 REVERT JUMPDEST PUSH1 0x1 DUP3 PUSH1 0x5 ADD PUSH1 0x1 PUSH2 0x100 EXP DUP2 SLOAD DUP2 PUSH1 0xFF MUL NOT AND SWAP1 DUP4 ISZERO ISZERO MUL OR SWAP1 SSTORE POP PUSH0 DUP3 PUSH1 0x6 ADD SLOAD SWAP1 POP PUSH0 CALLER PUSH20 0xFFFFFFFFFFFFFFFFFFFFFFFFFFFFFFFFFFFFFFFF AND DUP3 PUSH1 0x40 MLOAD PUSH2 0x7F4 SWAP1 PUSH2 0xF78 JUMP JUMPDEST PUSH0 PUSH1 0x40 MLOAD DUP1 DUP4 SUB DUP2 DUP6 DUP8 GAS CALL SWAP3 POP POP POP RETURNDATASIZE DUP1 PUSH0 DUP2 EQ PUSH2 0x82E JUMPI PUSH1 0x40 MLOAD SWAP2 POP PUSH1 0x1F NOT PUSH1 0x3F RETURNDATASIZE ADD AND DUP3 ADD PUSH1 0x40 MSTORE RETURNDATASIZE DUP3 MSTORE RETURNDATASIZE PUSH0 PUSH1 0x20 DUP5 ADD RETURNDATACOPY PUSH2 0x833 JUMP JUMPDEST PUSH1 0x60 SWAP2 POP JUMPDEST POP POP SWAP1 POP DUP1 PUSH2 0x877 JUMPI PUSH1 0x40 MLOAD PUSH32 0x8C379A000000000000000000000000000000000000000000000000000000000 DUP2 MSTORE PUSH1 0x4 ADD PUSH2 0x86E SWAP1 PUSH2 0xFD6 JUMP JUMPDEST PUSH1 0x40 MLOAD DUP1 SWAP2 SUB SWAP1 REVERT JUMPDEST CALLER PUSH20 0xFFFFFFFFFFFFFFFFFFFFFFFFFFFFFFFFFFFFFFFF AND DUP6 DUP8 PUSH32 0x608C8C3C6A3D40F40B96FBEE44F9B9AEE57A39C2FCB8BB0F59D8892B2D5492A2 DUP6 PUSH1 0x40 MLOAD PUSH2 0x8BF SWAP2 SWAP1 PUSH2 0xD87 JUMP JUMPDEST PUSH1 0x40 MLOAD DUP1 SWAP2 SUB SWAP1 LOG4 POP POP POP POP POP POP JUMP JUMPDEST PUSH0 DUP1 SLOAD SWAP1 PUSH2 0x100 EXP SWAP1 DIV PUSH20 0xFFFFFFFFFFFFFFFFFFFFFFFFFFFFFFFFFFFFFFFF AND DUP2 JUMP JUMPDEST PUSH1 0x1 PUSH0 DUP2 SLOAD DUP1 SWAP3 SWAP2 SWAP1 PUSH2 0x904 SWAP1 PUSH2 0xED1 JUMP JUMPDEST SWAP2 SWAP1 POP SSTORE POP PUSH0 PUSH1 0x2 PUSH0 PUSH1 0x1 SLOAD DUP2 MSTORE PUSH1 0x20 ADD SWAP1 DUP2 MSTORE PUSH1 0x20 ADD PUSH0 KECCAK256 SWAP1 POP PUSH1 0x1 SLOAD DUP2 PUSH0 ADD DUP2 SWAP1 SSTORE POP CALLER DUP2 PUSH1 0x1 ADD PUSH0 PUSH2 0x100 EXP DUP2 SLOAD DUP2 PUSH20 0xFFFFFFFFFFFFFFFFFFFFFFFFFFFFFFFFFFFFFFFF MUL NOT AND SWAP1 DUP4 PUSH20 0xFFFFFFFFFFFFFFFFFFFFFFFFFFFFFFFFFFFFFFFF AND MUL OR SWAP1 SSTORE POP DUP2 DUP2 PUSH1 0x2 ADD DUP2 SWAP1 SSTORE POP PUSH0 DUP2 PUSH1 0x3 ADD DUP2 SWAP1 SSTORE POP PUSH0 DUP2 PUSH1 0x5 ADD PUSH0 PUSH2 0x100 EXP DUP2 SLOAD DUP2 PUSH1 0xFF MUL NOT AND SWAP1 DUP4 ISZERO ISZERO MUL OR SWAP1 SSTORE POP PUSH0 DUP2 PUSH1 0x5 ADD PUSH1 0x1 PUSH2 0x100 EXP DUP2 SLOAD DUP2 PUSH1 0xFF MUL NOT AND SWAP1 DUP4 ISZERO ISZERO MUL OR SWAP1 SSTORE POP CALLER PUSH20 0xFFFFFFFFFFFFFFFFFFFFFFFFFFFFFFFFFFFFFFFF AND PUSH1 0x1 SLOAD PUSH32 0x17C4235E5445EDC74F9F07D8C362F1874338559A87E5F25978A39BA4B662E1F5 DUP5 PUSH1 0x40 MLOAD PUSH2 0x9FD SWAP2 SWAP1 PUSH2 0xD87 JUMP JUMPDEST PUSH1 0x40 MLOAD DUP1 SWAP2 SUB SWAP1 LOG3 POP POP JUMP JUMPDEST PUSH1 0x3 PUSH1 0x20 MSTORE DUP2 PUSH0 MSTORE PUSH1 0x40 PUSH0 KECCAK256 PUSH1 0x20 MSTORE DUP1 PUSH0 MSTORE PUSH1 0x40 PUSH0 KECCAK256 PUSH0 SWAP2 POP SWAP2 POP POP DUP1 PUSH0 ADD SLOAD SWAP1 DUP1 PUSH1 0x1 ADD SLOAD SWAP1 DUP1 PUSH1 0x2 ADD PUSH0 SWAP1 SLOAD SWAP1 PUSH2 0x100 EXP SWAP1 DIV PUSH20 0xFFFFFFFFFFFFFFFFFFFFFFFFFFFFFFFFFFFFFFFF AND SWAP1 POP DUP4 JUMP JUMPDEST DUP1 CALLER PUSH20 0xFFFFFFFFFFFFFFFFFFFFFFFFFFFFFFFFFFFFFFFF AND PUSH1 0x2 PUSH0 DUP4 DUP2 MSTORE PUSH1 0x20 ADD SWAP1 DUP2 MSTORE PUSH1 0x20 ADD PUSH0 KECCAK256 PUSH1 0x1 ADD PUSH0 SWAP1 SLOAD SWAP1 PUSH2 0x100 EXP SWAP1 DIV PUSH20 0xFFFFFFFFFFFFFFFFFFFFFFFFFFFFFFFFFFFFFFFF AND PUSH20 0xFFFFFFFFFFFFFFFFFFFFFFFFFFFFFFFFFFFFFFFF AND EQ PUSH2 0xAF2 JUMPI PUSH1 0x40 MLOAD PUSH32 0xEA8E4EB500000000000000000000000000000000000000000000000000000000 DUP2 MSTORE PUSH1 0x4 ADD PUSH1 0x40 MLOAD DUP1 SWAP2 SUB SWAP1 REVERT JUMPDEST PUSH0 PUSH1 0x2 PUSH0 DUP5 DUP2 MSTORE PUSH1 0x20 ADD SWAP1 DUP2 MSTORE PUSH1 0x20 ADD PUSH0 KECCAK256 SWAP1 POP DUP1 PUSH1 0x5 ADD PUSH0 SWAP1 SLOAD SWAP1 PUSH2 0x100 EXP SWAP1 DIV PUSH1 0xFF AND ISZERO PUSH2 0xB4E JUMPI PUSH1 0x40 MLOAD PUSH32 0xD9B532E600000000000000000000000000000000000000000000000000000000 DUP2 MSTORE PUSH1 0x4 ADD PUSH1 0x40 MLOAD DUP1 SWAP2 SUB SWAP1 REVERT JUMPDEST PUSH0 DUP2 PUSH1 0x3 ADD SLOAD SUB PUSH2 0xB8B JUMPI PUSH1 0x40 MLOAD PUSH32 0x66F3EF9B00000000000000000000000000000000000000000000000000000000 DUP2 MSTORE PUSH1 0x4 ADD PUSH1 0x40 MLOAD DUP1 SWAP2 SUB SWAP1 REVERT JUMPDEST PUSH0 TIMESTAMP PUSH1 0x1 NUMBER PUSH2 0xB9A SWAP2 SWAP1 PUSH2 0xFF4 JUMP JUMPDEST BLOCKHASH DUP6 PUSH1 0x40 MLOAD PUSH1 0x20 ADD PUSH2 0xBAE SWAP4 SWAP3 SWAP2 SWAP1 PUSH2 0x1070 JUMP JUMPDEST PUSH1 0x40 MLOAD PUSH1 0x20 DUP2 DUP4 SUB SUB DUP2 MSTORE SWAP1 PUSH1 0x40 MSTORE DUP1 MLOAD SWAP1 PUSH1 0x20 ADD KECCAK256 PUSH0 SHR SWAP1 POP PUSH0 PUSH1 0x1 DUP4 PUSH1 0x3 ADD SLOAD DUP4 PUSH2 0xBDB SWAP2 SWAP1 PUSH2 0x10D9 JUMP JUMPDEST PUSH2 0xBE5 SWAP2 SWAP1 PUSH2 0xF18 JUMP JUMPDEST SWAP1 POP DUP1 DUP4 PUSH1 0x4 ADD DUP2 SWAP1 SSTORE POP PUSH1 0x1 DUP4 PUSH1 0x5 ADD PUSH0 PUSH2 0x100 EXP DUP2 SLOAD DUP2 PUSH1 0xFF MUL NOT AND SWAP1 DUP4 ISZERO ISZERO MUL OR SWAP1 SSTORE POP DUP1 DUP6 PUSH32 0xCA1DAE47F36D2B335E85F1CB82F7D34F0A5EA31328E3AB461CBD70219EC90C9E PUSH1 0x40 MLOAD PUSH1 0x40 MLOAD DUP1 SWAP2 SUB SWAP1 LOG3 POP POP POP POP POP JUMP JUMPDEST PUSH0 DUP1 REVERT JUMPDEST PUSH0 DUP2 SWAP1 POP SWAP2 SWAP1 POP JUMP JUMPDEST PUSH2 0xC57 DUP2 PUSH2 0xC45 JUMP JUMPDEST DUP2 EQ PUSH2 0xC61 JUMPI PUSH0 DUP1 REVERT JUMPDEST POP JUMP JUMPDEST PUSH0 DUP2 CALLDATALOAD SWAP1 POP PUSH2 0xC72 DUP2 PUSH2 0xC4E JUMP JUMPDEST SWAP3 SWAP2 POP POP JUMP JUMPDEST PUSH0 PUSH1 0x20 DUP3 DUP5 SUB SLT ISZERO PUSH2 0xC8D JUMPI PUSH2 0xC8C PUSH2 0xC41 JUMP JUMPDEST JUMPDEST PUSH0 PUSH2 0xC9A DUP5 DUP3 DUP6 ADD PUSH2 0xC64 JUMP JUMPDEST SWAP2 POP POP SWAP3 SWAP2 POP POP JUMP JUMPDEST PUSH2 0xCAC DUP2 PUSH2 0xC45 JUMP JUMPDEST DUP3 MSTORE POP POP JUMP JUMPDEST PUSH0 PUSH20 0xFFFFFFFFFFFFFFFFFFFFFFFFFFFFFFFFFFFFFFFF DUP3 AND SWAP1 POP SWAP2 SWAP1 POP JUMP JUMPDEST PUSH0 PUSH2 0xCDB DUP3 PUSH2 0xCB2 JUMP JUMPDEST SWAP1 POP SWAP2 SWAP1 POP JUMP JUMPDEST PUSH2 0xCEB DUP2 PUSH2 0xCD1 JUMP JUMPDEST DUP3 MSTORE POP POP JUMP JUMPDEST PUSH0 DUP2 ISZERO ISZERO SWAP1 POP SWAP2 SWAP1 POP JUMP JUMPDEST PUSH2 0xD05 DUP2 PUSH2 0xCF1 JUMP JUMPDEST DUP3 MSTORE POP POP JUMP JUMPDEST PUSH0 PUSH2 0x100 DUP3 ADD SWAP1 POP PUSH2 0xD1F PUSH0 DUP4 ADD DUP12 PUSH2 0xCA3 JUMP JUMPDEST PUSH2 0xD2C PUSH1 0x20 DUP4 ADD DUP11 PUSH2 0xCE2 JUMP JUMPDEST PUSH2 0xD39 PUSH1 0x40 DUP4 ADD DUP10 PUSH2 0xCA3 JUMP JUMPDEST PUSH2 0xD46 PUSH1 0x60 DUP4 ADD DUP9 PUSH2 0xCA3 JUMP JUMPDEST PUSH2 0xD53 PUSH1 0x80 DUP4 ADD DUP8 PUSH2 0xCA3 JUMP JUMPDEST PUSH2 0xD60 PUSH1 0xA0 DUP4 ADD DUP7 PUSH2 0xCFC JUMP JUMPDEST PUSH2 0xD6D PUSH1 0xC0 DUP4 ADD DUP6 PUSH2 0xCFC JUMP JUMPDEST PUSH2 0xD7A PUSH1 0xE0 DUP4 ADD DUP5 PUSH2 0xCA3 JUMP JUMPDEST SWAP10 SWAP9 POP POP POP POP POP POP POP POP POP JUMP JUMPDEST PUSH0 PUSH1 0x20 DUP3 ADD SWAP1 POP PUSH2 0xD9A PUSH0 DUP4 ADD DUP5 PUSH2 0xCA3 JUMP JUMPDEST SWAP3 SWAP2 POP POP JUMP JUMPDEST PUSH0 DUP1 PUSH1 0x40 DUP4 DUP6 SUB SLT ISZERO PUSH2 0xDB6 JUMPI PUSH2 0xDB5 PUSH2 0xC41 JUMP JUMPDEST JUMPDEST PUSH0 PUSH2 0xDC3 DUP6 DUP3 DUP7 ADD PUSH2 0xC64 JUMP JUMPDEST SWAP3 POP POP PUSH1 0x20 PUSH2 0xDD4 DUP6 DUP3 DUP7 ADD PUSH2 0xC64 JUMP JUMPDEST SWAP2 POP POP SWAP3 POP SWAP3 SWAP1 POP JUMP JUMPDEST PUSH0 PUSH1 0x60 DUP3 ADD SWAP1 POP PUSH2 0xDF1 PUSH0 DUP4 ADD DUP7 PUSH2 0xCA3 JUMP JUMPDEST PUSH2 0xDFE PUSH1 0x20 DUP4 ADD DUP6 PUSH2 0xCA3 JUMP JUMPDEST PUSH2 0xE0B PUSH1 0x40 DUP4 ADD DUP5 PUSH2 0xCE2 JUMP JUMPDEST SWAP5 SWAP4 POP POP POP POP JUMP JUMPDEST PUSH0 PUSH1 0x20 DUP3 ADD SWAP1 POP PUSH2 0xE26 PUSH0 DUP4 ADD DUP5 PUSH2 0xCE2 JUMP JUMPDEST SWAP3 SWAP2 POP POP JUMP JUMPDEST PUSH0 DUP3 DUP3 MSTORE PUSH1 0x20 DUP3 ADD SWAP1 POP SWAP3 SWAP2 POP POP JUMP JUMPDEST PUSH32 0x4C6F747465727920646F6573206E6F7420657869737400000000000000000000 PUSH0 DUP3 ADD MSTORE POP JUMP JUMPDEST PUSH0 PUSH2 0xE70 PUSH1 0x16 DUP4 PUSH2 0xE2C JUMP JUMPDEST SWAP2 POP PUSH2 0xE7B DUP3 PUSH2 0xE3C JUMP JUMPDEST PUSH1 0x20 DUP3 ADD SWAP1 POP SWAP2 SWAP1 POP JUMP JUMPDEST PUSH0 PUSH1 0x20 DUP3 ADD SWAP1 POP DUP2 DUP2 SUB PUSH0 DUP4 ADD MSTORE PUSH2 0xE9D DUP2 PUSH2 0xE64 JUMP JUMPDEST SWAP1 POP SWAP2 SWAP1 POP JUMP JUMPDEST PUSH32 0x4E487B7100000000000000000000000000000000000000000000000000000000 PUSH0 MSTORE PUSH1 0x11 PUSH1 0x4 MSTORE PUSH1 0x24 PUSH0 REVERT JUMPDEST PUSH0 PUSH2 0xEDB DUP3 PUSH2 0xC45 JUMP JUMPDEST SWAP2 POP PUSH32 0xFFFFFFFFFFFFFFFFFFFFFFFFFFFFFFFFFFFFFFFFFFFFFFFFFFFFFFFFFFFFFFFF DUP3 SUB PUSH2 0xF0D JUMPI PUSH2 0xF0C PUSH2 0xEA4 JUMP JUMPDEST JUMPDEST PUSH1 0x1 DUP3 ADD SWAP1 POP SWAP2 SWAP1 POP JUMP JUMPDEST PUSH0 PUSH2 0xF22 DUP3 PUSH2 0xC45 JUMP JUMPDEST SWAP2 POP PUSH2 0xF2D DUP4 PUSH2 0xC45 JUMP JUMPDEST SWAP3 POP DUP3 DUP3 ADD SWAP1 POP DUP1 DUP3 GT ISZERO PUSH2 0xF45 JUMPI PUSH2 0xF44 PUSH2 0xEA4 JUMP JUMPDEST JUMPDEST SWAP3 SWAP2 POP POP JUMP JUMPDEST PUSH0 DUP2 SWAP1 POP SWAP3 SWAP2 POP POP JUMP JUMPDEST POP JUMP JUMPDEST PUSH0 PUSH2 0xF63 PUSH0 DUP4 PUSH2 0xF4B JUMP JUMPDEST SWAP2 POP PUSH2 0xF6E DUP3 PUSH2 0xF55 JUMP JUMPDEST PUSH0 DUP3 ADD SWAP1 POP SWAP2 SWAP1 POP JUMP JUMPDEST PUSH0 PUSH2 0xF82 DUP3 PUSH2 0xF58 JUMP JUMPDEST SWAP2 POP DUP2 SWAP1 POP SWAP2 SWAP1 POP JUMP JUMPDEST PUSH32 0x5472616E73666572206661696C65640000000000000000000000000000000000 PUSH0 DUP3 ADD MSTORE POP JUMP JUMPDEST PUSH0 PUSH2 0xFC0 PUSH1 0xF DUP4 PUSH2 0xE2C JUMP JUMPDEST SWAP2 POP PUSH2 0xFCB DUP3 PUSH2 0xF8C JUMP JUMPDEST PUSH1 0x20 DUP3 ADD SWAP1 POP SWAP2 SWAP1 POP JUMP JUMPDEST PUSH0 PUSH1 0x20 DUP3 ADD SWAP1 POP DUP2 DUP2 SUB PUSH0 DUP4 ADD MSTORE PUSH2 0xFED DUP2 PUSH2 0xFB4 JUMP JUMPDEST SWAP1 POP SWAP2 SWAP1 POP JUMP JUMPDEST PUSH0 PUSH2 0xFFE DUP3 PUSH2 0xC45 JUMP JUMPDEST SWAP2 POP PUSH2 0x1009 DUP4 PUSH2 0xC45 JUMP JUMPDEST SWAP3 POP DUP3 DUP3 SUB SWAP1 POP DUP2 DUP2 GT ISZERO PUSH2 0x1021 JUMPI PUSH2 0x1020 PUSH2 0xEA4 JUMP JUMPDEST JUMPDEST SWAP3 SWAP2 POP POP JUMP JUMPDEST PUSH0 DUP2 SWAP1 POP SWAP2 SWAP1 POP JUMP JUMPDEST PUSH2 0x1041 PUSH2 0x103C DUP3 PUSH2 0xC45 JUMP JUMPDEST PUSH2 0x1027 JUMP JUMPDEST DUP3 MSTORE POP POP JUMP JUMPDEST PUSH0 DUP2 SWAP1 POP SWAP2 SWAP1 POP JUMP JUMPDEST PUSH0 DUP2 SWAP1 POP SWAP2 SWAP1 POP JUMP JUMPDEST PUSH2 0x106A PUSH2 0x1065 DUP3 PUSH2 0x1047 JUMP JUMPDEST PUSH2 0x1050 JUMP JUMPDEST DUP3 MSTORE POP POP JUMP JUMPDEST PUSH0 PUSH2 0x107B DUP3 DUP7 PUSH2 0x1030 JUMP JUMPDEST PUSH1 0x20 DUP3 ADD SWAP2 POP PUSH2 0x108B DUP3 DUP6 PUSH2 0x1059 JUMP JUMPDEST PUSH1 0x20 DUP3 ADD SWAP2 POP PUSH2 0x109B DUP3 DUP5 PUSH2 0x1030 JUMP JUMPDEST PUSH1 0x20 DUP3 ADD SWAP2 POP DUP2 SWAP1 POP SWAP5 SWAP4 POP POP POP POP JUMP JUMPDEST PUSH32 0x4E487B7100000000000000000000000000000000000000000000000000000000 PUSH0 MSTORE PUSH1 0x12 PUSH1 0x4 MSTORE PUSH1 0x24 PUSH0 REVERT JUMPDEST PUSH0 PUSH2 0x10E3 DUP3 PUSH2 0xC45 JUMP JUMPDEST SWAP2 POP PUSH2 0x10EE DUP4 PUSH2 0xC45 JUMP JUMPDEST SWAP3 POP DUP3 PUSH2 0x10FE JUMPI PUSH2 0x10FD PUSH2 0x10AC JUMP JUMPDEST JUMPDEST DUP3 DUP3 MOD SWAP1 POP SWAP3 SWAP2 POP POP JUMP INVALID LOG2 PUSH5 0x6970667358 0x22 SLT KECCAK256 DUP5 0x2D 0x25 MSIZE MOD 0xD9 0xD9 OR EQ GAS 0xB0 JUMP BALANCE 0xE7 SWAP8 JUMPDEST EXTCODECOPY PUSH14 0x5B50212EF84FFD2B7A5B1645CE24 PUSH5 0x736F6C6343 STOP ADDMOD BYTE STOP CALLER "
				},
				"gasEstimates": {
					"creation": {
						"codeDepositCost": "883000",
						"executionCost": "30192",
						"totalCost": "913192"
					},
					"external": {
						"buyTicket(uint256)": "infinite",
						"claimPrize(uint256,uint256)": "infinite",
						"createLottery(uint256)": "infinite",
						"getLotteryInfo(uint256)": "infinite",
						"getTicketInfo(uint256,uint256)": "infinite",
						"lotteries(uint256)": "infinite",
						"lotteryIdCounter()": "2448",
						"owner()": "2527",
						"pickWinner(uint256)": "infinite",
						"tickets(uint256,uint256)": "infinite"
					}
				},
				"methodIdentifiers": {
					"buyTicket(uint256)": "67dd74ca",
					"claimPrize(uint256,uint256)": "7b154140",
					"createLottery(uint256)": "8dd8c56d",
					"getLotteryInfo(uint256)": "76b3c8a8",
					"getTicketInfo(uint256,uint256)": "6b0d0329",
					"lotteries(uint256)": "1398e076",
					"lotteryIdCounter()": "25595ce5",
					"owner()": "8da5cb5b",
					"pickWinner(uint256)": "f737d21d",
					"tickets(uint256,uint256)": "a374e43f"
				}
			},
			"storageLayout": {
				"storage": [
					{
						"astId": 4,
						"contract": "contracts/DrawBox.sol:LotterySystem",
						"label": "owner",
						"offset": 0,
						"slot": "0",
						"type": "t_address"
					},
					{
						"astId": 6,
						"contract": "contracts/DrawBox.sol:LotterySystem",
						"label": "lotteryIdCounter",
						"offset": 0,
						"slot": "1",
						"type": "t_uint256"
					},
					{
						"astId": 35,
						"contract": "contracts/DrawBox.sol:LotterySystem",
						"label": "lotteries",
						"offset": 0,
						"slot": "2",
						"type": "t_mapping(t_uint256,t_struct(Lottery)23_storage)"
					},
					{
						"astId": 42,
						"contract": "contracts/DrawBox.sol:LotterySystem",
						"label": "tickets",
						"offset": 0,
						"slot": "3",
						"type": "t_mapping(t_uint256,t_mapping(t_uint256,t_struct(Ticket)30_storage))"
					}
				],
				"types": {
					"t_address": {
						"encoding": "inplace",
						"label": "address",
						"numberOfBytes": "20"
					},
					"t_bool": {
						"encoding": "inplace",
						"label": "bool",
						"numberOfBytes": "1"
					},
					"t_mapping(t_uint256,t_mapping(t_uint256,t_struct(Ticket)30_storage))": {
						"encoding": "mapping",
						"key": "t_uint256",
						"label": "mapping(uint256 => mapping(uint256 => struct LotterySystem.Ticket))",
						"numberOfBytes": "32",
						"value": "t_mapping(t_uint256,t_struct(Ticket)30_storage)"
					},
					"t_mapping(t_uint256,t_struct(Lottery)23_storage)": {
						"encoding": "mapping",
						"key": "t_uint256",
						"label": "mapping(uint256 => struct LotterySystem.Lottery)",
						"numberOfBytes": "32",
						"value": "t_struct(Lottery)23_storage"
					},
					"t_mapping(t_uint256,t_struct(Ticket)30_storage)": {
						"encoding": "mapping",
						"key": "t_uint256",
						"label": "mapping(uint256 => struct LotterySystem.Ticket)",
						"numberOfBytes": "32",
						"value": "t_struct(Ticket)30_storage"
					},
					"t_struct(Lottery)23_storage": {
						"encoding": "inplace",
						"label": "struct LotterySystem.Lottery",
						"members": [
							{
								"astId": 8,
								"contract": "contracts/DrawBox.sol:LotterySystem",
								"label": "id",
								"offset": 0,
								"slot": "0",
								"type": "t_uint256"
							},
							{
								"astId": 10,
								"contract": "contracts/DrawBox.sol:LotterySystem",
								"label": "authority",
								"offset": 0,
								"slot": "1",
								"type": "t_address"
							},
							{
								"astId": 12,
								"contract": "contracts/DrawBox.sol:LotterySystem",
								"label": "ticketPrice",
								"offset": 0,
								"slot": "2",
								"type": "t_uint256"
							},
							{
								"astId": 14,
								"contract": "contracts/DrawBox.sol:LotterySystem",
								"label": "lastTicketId",
								"offset": 0,
								"slot": "3",
								"type": "t_uint256"
							},
							{
								"astId": 16,
								"contract": "contracts/DrawBox.sol:LotterySystem",
								"label": "winnerId",
								"offset": 0,
								"slot": "4",
								"type": "t_uint256"
							},
							{
								"astId": 18,
								"contract": "contracts/DrawBox.sol:LotterySystem",
								"label": "winnerChosen",
								"offset": 0,
								"slot": "5",
								"type": "t_bool"
							},
							{
								"astId": 20,
								"contract": "contracts/DrawBox.sol:LotterySystem",
								"label": "claimed",
								"offset": 1,
								"slot": "5",
								"type": "t_bool"
							},
							{
								"astId": 22,
								"contract": "contracts/DrawBox.sol:LotterySystem",
								"label": "totalPrize",
								"offset": 0,
								"slot": "6",
								"type": "t_uint256"
							}
						],
						"numberOfBytes": "224"
					},
					"t_struct(Ticket)30_storage": {
						"encoding": "inplace",
						"label": "struct LotterySystem.Ticket",
						"members": [
							{
								"astId": 25,
								"contract": "contracts/DrawBox.sol:LotterySystem",
								"label": "id",
								"offset": 0,
								"slot": "0",
								"type": "t_uint256"
							},
							{
								"astId": 27,
								"contract": "contracts/DrawBox.sol:LotterySystem",
								"label": "lotteryId",
								"offset": 0,
								"slot": "1",
								"type": "t_uint256"
							},
							{
								"astId": 29,
								"contract": "contracts/DrawBox.sol:LotterySystem",
								"label": "owner",
								"offset": 0,
								"slot": "2",
								"type": "t_address"
							}
						],
						"numberOfBytes": "96"
					},
					"t_uint256": {
						"encoding": "inplace",
						"label": "uint256",
						"numberOfBytes": "32"
					}
				}
			},
			"userdoc": {
				"kind": "user",
				"methods": {},
				"version": 1
			}
		}
	}
}